:1000000004C1000021C100001FC100001DC100008B
:100010001BC1000019C1000017C1000015C100007C
:1000200013C1000011C100000FC100000DC100008C
:100030000BC100008BC1000007C1000005C100001A
:1000400003C1000001C10000FFC00000FDC00000AE
:10005000FBC00000F9C00000F7C00000F5C00000C0
:10006000F3C00000F1C00000EFC00000EDC00000D0
:10007000EBC00000E9C00000E7C00000E5C00000E0
:10008000E3C00000E1C00000DFC0000039044D04FF
:100090005104550459045D046104760478047B041A
:1000A0007E048104840487049604B804DA04FC0402
:1000B0001E05400562057F0586058D0594059B0597
:1000C000A2057805AC05C005D305D705DB05DF051E
:1000D000E305E705EB05EF05F30501060306060654
:1000E00009060C060F061206150618061B06310631
:1000F00061068306A506C706E9060B072D074F070D
:10010000710759068B0792079907A007A707AE0743
:10011000B507BC07C3078407CE07E207F507F90751
:10012000FD070108050809080D0811081508190838
:100130001D0821082E0830083308360839083C0805
:100140003F084208450848084B084E085108660811
:100150008E08B008D208F408160938095A097C0933
:100160009E09C009E209040A0A0A250A2C0A330A70
:100170003A0A410A480A4F0A560A5D0A640A6B0A9B
:10018000720A1E0A7E0A930AA80AAC0AB00AB40AC6
:10019000B80ABC0AC00AC40AC80ACC0AD00AD40ADF
:1001A000D80ADC0AE00AED0AEF0AF20AF50AF80AB0
:1001B000FB0AFE0A010B040B070B0A0B0D0B100BBD
:1001C000130B160B190B2F0B570B790B9B0BBD0B3E
:1001D000DF0B010C230C450C670C890CAB0CCD0C10
:1001E000EF0C110D330D390D560D5F0D680D710DAE
:1001F0007A0D830D8C0D950D9E0DA70DB00DB90DCB
:10020000C20DCB0DD40D4D0DE20D11241FBECFEF4D
:10021000D0E4DEBFCDBF11E0A0E0B1E0EEE4FFE14D
:1002200000E00BBF02C007900D92A63FB107D9F7BF
:1002300022E0A6EFB1E001C01D92A830B207E1F7BD
:100240000E94E40D0C94A50FDBCE181619069CF441
:1002500040E050E077E063E00BC00000215031093E
:1002600021153105D1F74F5F5F4F4817590719F036
:10027000272F362FF2CF08955E9888B95F9A000035
:100280005F9882E090E0E1CF089581E0F5CF089596
:10029000813118F48158F0CF08958155EDCF08953C
:1002A00084E690E0D2DF88E3E7DF86E0E5DF8FE0F9
:1002B000E3DF81E0E1DF8AE090E0C7CF08955E9A56
:1002C00088B95F9A00005F9881E090E0BECF089502
:1002D0000F931F93CF93DF93182FEB01D6DF888105
:1002E000882359F001E0010F812FD2DF8991E7DFE8
:1002F0008881882311F0102FF5CFDF91CF911F91C6
:100300000F9108958BE0809381008DE790E09093AA
:1003100089008093880082E080936F0010928500AE
:10032000109284008091010190910201A09103013B
:10033000B09104018093F7019093F801A093F90123
:10034000B093FA018FB780688FBF08951F920F9204
:100350000FB60F9211248F939F93AF93BF93809109
:10036000F7019091F801A091F901B091FA0101977C
:10037000A109B1098093F7019093F801A093F901C5
:10038000B093FA01892B8A2B8B2B99F481E080930F
:10039000FB018091010190910201A0910301B091B4
:1003A00004018093F7019093F801A093F901B093B1
:1003B000FA01BF91AF919F918F910F900FBE0F9057
:1003C0001F901895EF92FF920F931F93CF93DF9397
:1003D000CDB7DEB7A8970FB6F894DEBF0FBECDBF7E
:1003E00098E08E010F5F1F4FD801E92F1D92EA950B
:1003F000E9F73EE039838BE18A838EE18B832CE140
:100400002C838D832FE12E833F837E01F9E0EF0E55
:10041000F11CD701E92F1D92EA95E9F78CE08D8751
:100420008E87FE017196DF01492F1D924A95E9F7EB
:100430008D8B8E8B3896DF01492F1D924A95E9F7F7
:100440008D8F8E8F3896DF011D929A95E9F739A32B
:100450003AA32BA385E18CA32DA32EA38FA380E425
:100460000BDFF80181918F012ADF0E151F05C9F7F7
:100470008E01075F1F4F7E01F1E1EF0EF11CD801E5
:100480008D918D011CDF0E151F05C9F78E010F5EC2
:100490001F4F7E01B9E1EB0EF11CF80181918F0134
:1004A0000EDF0E151F05C9F78E01075E1F4F7E0177
:1004B000F1E2EF0EF11CD8018D918D0100DF0E15D8
:1004C0001F05C9F78E010F5D1F4F7E01B9E2EB0ECC
:1004D000F11CF80181918F01F2DE0E151F05C9F79D
:1004E00080E8CADEA8960FB6F894DEBF0FBECDBF77
:1004F000DF91CF911F910F91FF90EF90089520E031
:1005000030E090E04BB1407F48604BB96BB1AC013B
:10051000022E02C0559547950A94E2F74170462B8A
:100520004BB9599A2F5F3F4F2830310559F75A9AE6
:100530008BB1807F8BB908958930A1F08830A1F00C
:100540008730A1F08630A1F08530A1F08430A1F091
:100550008330A1F08230A1F08130A1F08823A1F096
:1005600080E0089589E1089580E008958FE108957D
:1005700080E4089588E4089588E908958CE008955A
:1005800084E208958EE9089582E008958091020240
:10059000823009F43EC028F4882361F0813079F17B
:1005A00049C0843009F43DC008F437C0853009F4EF
:1005B0003CC040C08091F601811121C066DE65E03B
:1005C00071E081E085DEFEDE81E162DE80E077DEE3
:1005D00083E15EDE81E073DE85E15ADE82E06FDE7C
:1005E00087E156DE83E06BDE89E152DE84E067DE80
:1005F00080910001A1DF83DF81E0809302021C99DA
:1006000004C082E08093020226C081E0809302024F
:1006100020C083E08093020226C084E0809302021F
:1006200025C085E08093020224C081E0809302020D
:100630008093F601809102028330A9F028F4813082
:1006400041F08230C1F407C0843081F0853099F4E4
:1006500010C012B8089519DE61E171E081E038DE62
:1006600081E082B9089582E082B9089584E082B978
:10067000089588E082B9089580910702823009F4D4
:100680005BC028F4882361F08130A1F1A7C08430D9
:1006900009F496C008F472C0853009F497C09EC072
:1006A0008091F601813009F0D8C06BE171E010DE75
:1006B000189905C0189BFECF81E080930702199B13
:1006C00004C01A9B02C01B9989C020910001822F8F
:1006D00090E0019799231CF0215020930001809114
:1006E0000001811103C084E18093F60185E08093CD
:1006F000070284C0199905C0199BFECF82E0809340
:100700000702189B04C01A9B02C01B9967C0209166
:100710000001822F90E0019799231CF02150209333
:10072000000180910001811103C084E18093F601F2
:1007300085E08093070262C01A9905C01A9BFECF1C
:1007400083E080930702199B04C0189B02C01B9989
:1007500045C020910001822F90E0019799231CF061
:1007600021502093000180910001811103C084E198
:100770008093F60185E08093070240C01B9905C075
:100780001B9BFECF84E080930702199B04C01A9B39
:1007900002C0189923C020910001822F90E0019798
:1007A00099231CF0215020930001809100018111B8
:1007B00003C084E18093F60185E0809307021EC0A8
:1007C0001C9938C086E0809307023FC0189916C074
:1007D000189BFECF81E08093070217C0809107022B
:1007E000833009F128F4813081F08230A9F0089536
:1007F000853021F0F8F0863041F1089580E182B92A
:100800008091000199DE7BCE089581E082B98091CC
:10081000000192DE74CE089582E082B980910001D9
:100820008BDE6DCE089584E082B98091000184DE74
:1008300066CE089588E082B96AE271E081E048DD21
:100840008091000179DE5BCE089512B8809100019D
:1008500073DE55DE82E08093F601089580910102F7
:1008600090E087309105B8F5FC01EA5BFF4F0C94EE
:100870009F0F8091F6018230C9F563E371E081E05A
:1008800027DD189903C081E080930102189B23C0E3
:10089000109201021899FCCF29C082E080930102D6
:1008A0002AC083E08093010229C084E08093010282
:1008B00028C085E08093010227C086E08093010272
:1008C00026C06DE371E081E003DD83E08093F601F3
:1008D000109201020BC08091010290E087309105D7
:1008E000C0F4FC01E35BFF4F0C949F0F12B8089516
:1008F00081E082B9089584E082B9089588E082B9E0
:10090000089581E082B9089582E082B9089581E076
:1009100082B908958091FC0190E08730910508F03C
:10092000D7C0FC01EC5AFF4F0C949F0F189905C0DB
:10093000189BFECF81E08093FC01199B04C01A9B99
:1009400002C01B99C8C020910001822F90E001973E
:1009500099231CF021502093000180910001811106
:1009600003C084E18093F60187E08093FC01C0C05E
:100970001A9905C01A9BFECF82E08093FC01199B57
:1009800004C0189B02C01B99A6C020910001822FB1
:1009900090E0019799231CF0215020930001809151
:1009A0000001811103C084E18093F60187E0809308
:1009B000FC019EC01B9905C01B9BFECF83E080936A
:1009C000FC01199B04C01A9B02C0189984C0209195
:1009D0000001822F90E0019799231CF02150209371
:1009E000000180910001811103C084E18093F60130
:1009F00087E08093FC017CC0189905C0189BFECF4E
:100A000084E08093FC01199B04C01A9B02C01B99CF
:100A100062C020910001822F90E0019799231CF081
:100A200021502093000180910001811103C084E1D5
:100A30008093F60187E08093FC015AC0199905C0A4
:100A4000199BFECF85E08093FC01189B04C01A9B84
:100A500002C01B9940C020910001822F90E00197B5
:100A600099231CF0215020930001809100018111F5
:100A700003C084E18093F60187E08093FC0138C0D5
:100A8000189905C0189BFECF86E08093FC01199B46
:100A900004C01A9B02C01B991EC020910001822F26
:100AA00090E0019799231CF0215020930001809140
:100AB0000001811103C084E18093F60187E08093F7
:100AC000FC0116C01C993EC088E08093FC0144C024
:100AD0001092FC0108958091FC0190E0FC01319797
:100AE000E830F10508F040C0E55AFF4F0C949F0F25
:100AF00080E182B9809100011FDD01CD089581E080
:100B000082B98091000118DDFACC089584E082B9A1
:100B10008091000111DDF3CC089588E082B98091C5
:100B200000010ADDECCC089581E082B980910001DA
:100B300003DDE5CC089582E082B980910001FCDC00
:100B4000DECC089581E082B96AE271E0C1DB809178
:100B50000001F2DCD4CC089512B880910001ECDCE5
:100B6000CEDC84E08093F60108958091FD0190E051
:100B70008A309105D8F5FC01ED59FF4F0C949F0F79
:100B800068E571E081E0A4DB8091F601843071F5C5
:100B9000189906C0189BFECF81E08093FD0133C0F9
:100BA0001092FD012EC082E08093FD012FC083E0F2
:100BB0008093FD012EC084E08093FD012DC085E06F
:100BC0008093FD012CC086E08093FD012BC087E05F
:100BD0008093FD012AC088E08093FD0129C089E04F
:100BE0008093FD0128C01092FD010BC08091FD0192
:100BF00090E08A30910540F5FC01E359FF4F0C94D9
:100C00009F0F12B8089582E082B9089584E082B9F6
:100C1000089581E082B9089588E082B9089582E05C
:100C200082B9089584E082B9089581E082B9089577
:100C300082E082B9089588E082B964E671E081E0DB
:100C400047DB85E08093F60108958091030290E0F0
:100C50008B30910508F04BC1FC01E958FF4F0C9413
:100C60009F0F8091F601853009F0A0C112B8199943
:100C700005C0199BFECF81E080930302189B04C03E
:100C80001A9B02C01B9933C120910001822F90E072
:100C9000019799231CF021502093000180910001BD
:100CA000811103C084E18093F6018AE080930302FE
:100CB0002BC1199929C1199BFECF81E080930302B2
:100CC0002AC11A9905C01A9BFECF82E080930302C5
:100CD000199B04C0189B02C01B9909C120910001F7
:100CE000822F90E0019799231CF02150209300015E
:100CF00080910001811103C084E18093F6018AE0B4
:100D00008093030201C1189905C0189BFECF83E0B0
:100D100080930302199B04C01A9B02C01B99E7C071
:100D200020910001822F90E0019799231CF021501F
:100D30002093000180910001811103C084E1809320
:100D4000F6018AE080930302DFC01B9905C01B9B5C
:100D5000FECF84E080930302199B04C01A9B02C05B
:100D60001899C5C020910001822F90E00197992326
:100D70001CF021502093000180910001811103C0DB
:100D800084E18093F6018AE080930302BDC0199943
:100D900005C0199BFECF85E080930302189B04C019
:100DA0001A9B02C01B99A3C020910001822F90E0E2
:100DB000019799231CF0215020930001809100019C
:100DC000811103C084E18093F6018AE080930302DD
:100DD0009BC01A9905C01A9BFECF86E08093030240
:100DE000199B04C0189B02C01B9981C0209100016F
:100DF000822F90E0019799231CF02150209300014D
:100E000080910001811103C084E18093F6018AE0A2
:100E10008093030279C0189905C0189BFECF87E024
:100E200080930302199B04C01A9B02C01B995FC0E8
:100E300020910001822F90E0019799231CF021500E
:100E40002093000180910001811103C084E180930F
:100E5000F6018AE08093030257C0199905C0199BD7
:100E6000FECF88E080930302189B04C01A9B02C047
:100E70001B993DC020910001822F90E0019799239A
:100E80001CF021502093000180910001811103C0CA
:100E900084E18093F6018AE08093030235C01B99B8
:100EA00005C01B9BFECF89E080930302199B04C001
:100EB0001A9B02C018991BC020910001822F90E05C
:100EC000019799231CF0215020930001809100018B
:100ED000811103C084E18093F6018AE080930302CC
:100EE00013C01C9950C08BE08093030257C08091BF
:100EF000030290E0FC013197EB30F10508F056C099
:100F0000EE57FF4F0C949F0F8091000115DBF7DA2D
:100F100080E182B90895809100010EDBF0DA82E071
:100F200082B908958091000107DBE9DA84E082B993
:100F300008958091000100DBE2DA81E082B9089532
:100F400080910001F9DADBDA88E082B908958091B6
:100F50000001F2DAD4DA82E082B9089580910001CA
:100F6000EBDACDDA84E082B9089580910001E4DA09
:100F7000C6DA81E082B9089580910001DDDABFDA36
:100F800082E082B908956AE671E081E0A1D980919A
:100F90000001D2DAB4DA88E082B9089512B88091FB
:100FA0000001CADAACDA86E08093F60108958091F8
:100FB000FE0190E08D30910508F046C0FC01E3573A
:100FC000FF4FBDC762E771E081E082D98091F601F1
:100FD0008630D1F5189906C0189BFECF81E080932A
:100FE000FE013EC01092FE0139C082E08093FE01F6
:100FF0003AC083E08093FE0139C084E08093FE0113
:1010000038C085E08093FE0137C086E08093FE0102
:1010100036C087E08093FE0135C088E08093FE01F2
:1010200034C089E08093FE0133C08AE08093FE01E2
:1010300032C08BE08093FE0131C08CE08093FE01D2
:1010400030C01092FE010AC08091FE0190E08D3008
:10105000910580F5FC01E656FF4F71C712B808955F
:1010600081E082B9089588E082B9089582E082B96A
:10107000089581E082B9089582E082B9089588E0F8
:1010800082B9089582E082B9089581E082B9089515
:1010900088E082B9089581E082B9089582E082B93A
:1010A00008956DE771E081E013D981E082B987E0AE
:1010B0008093F60108958091000290E08E309105B2
:1010C00008F0B0C1FC01E955FF4F39C78091F60126
:1010D000873009F01CC212B8189905C0189BFECFC2
:1010E00081E080930002199B04C01A9B02C01B99E7
:1010F00099C120910001822F90E0019799231CF063
:1011000021502093000180910001811103C084E1EE
:101110008093F6018DE08093000290C11B9905C079
:101120001B9BFECF82E080930002199B04C01A9B98
:1011300002C0189977C120910001822F90E0019799
:1011400099231CF02150209300018091000181110E
:1011500003C084E18093F6018DE0809300026EC1AC
:10116000199905C0199BFECF83E080930002189B5C
:1011700004C01A9B02C01B9955C120910001822F07
:1011800090E0019799231CF0215020930001809159
:101190000001811103C084E18093F6018DE080930A
:1011A00000024CC1189905C0189BFECF84E08093C3
:1011B0000002199B04C01A9B02C01B9933C12091E5
:1011C0000001822F90E0019799231CF02150209379
:1011D000000180910001811103C084E18093F60138
:1011E0008DE0809300022AC1199905C0199BFECF9A
:1011F00085E080930002189B04C01A9B02C01B99D3
:1012000011C120910001822F90E0019799231CF0D9
:1012100021502093000180910001811103C084E1DD
:101220008093F6018DE08093000208C11B9905C0F0
:101230001B9BFECF86E080930002199B04C01A9B83
:1012400002C01899EFC020910001822F90E0019711
:1012500099231CF0215020930001809100018111FD
:1012600003C084E18093F6018DE080930002E6C024
:10127000199905C0199BFECF87E080930002189B47
:1012800004C01A9B02C01B99CDC020910001822F7F
:1012900090E0019799231CF0215020930001809148
:1012A0000001811103C084E18093F6018DE08093F9
:1012B0000002C4C0189905C0189BFECF88E0809337
:1012C0000002199B04C01A9B02C01B99ABC020915D
:1012D0000001822F90E0019799231CF02150209368
:1012E000000180910001811103C084E18093F60127
:1012F0008DE080930002A2C01B9905C01B9BFECF0E
:1013000089E080930002199B04C01A9B02C01899BF
:1013100089C020910001822F90E0019799231CF051
:1013200021502093000180910001811103C084E1CC
:101330008093F6018DE08093000280C0189905C06B
:10134000189BFECF8AE080930002199B04C01A9B71
:1013500002C01B9967C020910001822F90E0019785
:1013600099231CF0215020930001809100018111EC
:1013700003C084E18093F6018DE0809300025EC09B
:10138000199905C0199BFECF8BE080930002189B32
:1013900004C01A9B02C01B9945C020910001822FF6
:1013A00090E0019799231CF0215020930001809137
:1013B0000001811103C084E18093F6018DE08093E8
:1013C00000023CC0189905C0189BFECF8CE08093AA
:1013D0000002199B04C01A9B02C01B9923C02091D4
:1013E0000001822F90E0019799231CF02150209357
:1013F000000180910001811103C084E18093F60116
:101400008DE0809300021AC01C996CC08EE080931E
:10141000000274C0189912C0189BFECF81E080931F
:10142000000213C08091000290E0FC013197EE3081
:10143000F10508F06CC0EB54FF4F81C580910001AD
:101440007BD85DD880E182B908958091000174D87D
:1014500056D881E082B90895809100016DD84FD8A7
:1014600088E082B908958091000166D848D882E06A
:1014700082B90895809100015FD841D881E082B996
:1014800008958091000158D83AD882E082B9089531
:101490008091000151D833D888E082B908958091B5
:1014A00000014AD82CD882E082B9089580910001C9
:1014B00043D825D881E082B90895809100013CD8B5
:1014C0001ED888E082B908958091000135D817D8D8
:1014D00081E082B90895809100012ED810D882E071
:1014E00082B9089569E971E081E00E946801809104
:1014F000000122D804D881E082B9089580910001CA
:101500001BD80E947F0212B888E08093F6010895EC
:101510008091040290E08031910508F054C0FC01F4
:10152000ED53FF4F0CC565EA71E081E00E94680150
:101530008091F601883009F046C0189906C0189BC2
:10154000FECF81E0809304024AC01092040245C09D
:1015500082E08093040246C083E08093040245C089
:1015600084E08093040244C085E08093040243C079
:1015700086E08093040242C087E08093040241C069
:1015800088E08093040240C089E0809304023FC059
:101590008AE0809304023EC08BE0809304023DC049
:1015A0008CE0809304023CC08DE0809304023BC039
:1015B0008EE0809304023AC08FE08093040239C029
:1015C000109204020AC08091040290E080319105DB
:1015D000D0F5FC01ED52FF4FB2C412B8089588E077
:1015E00082B9089584E082B9089582E082B90895AD
:1015F00081E082B9089582E082B9089581E082B9DC
:10160000089584E082B9089588E082B9089582E05F
:1016100082B9089581E082B9089582E082B908957F
:1016200081E082B9089584E082B9089588E082B9A2
:10163000089560EB71E081E00E94680181E082B969
:1016400089E08093F60108958091050290E0813150
:10165000910508F016C2FC01ED51FF4F70C4809156
:10166000F601893009F0AFC212B81B9905C01B9B67
:10167000FECF81E080930502199B04C01A9B02C033
:101680001899FFC120910001822F90E001979923C2
:101690001CF021502093000180910001811103C0B2
:1016A00084E18093F60180E180930502F6C11A99E6
:1016B00005C01A9BFECF82E080930502199B04C0EF
:1016C000189B02C01B99DDC120910001822F90E080
:1016D000019799231CF02150209300018091000173
:1016E000811103C084E18093F60180E180930502BB
:1016F000D4C1199905C0199BFECF83E080930502E0
:10170000189B04C01A9B02C01B99BBC12091000109
:10171000822F90E0019799231CF021502093000123
:1017200080910001811103C084E18093F60180E182
:1017300080930502B2C1189905C0189BFECF84E0C2
:1017400080930502199B04C01A9B02C01B9999C182
:1017500020910001822F90E0019799231CF02150E5
:101760002093000180910001811103C084E18093E6
:10177000F60180E18093050290C1199905C0199B7B
:10178000FECF85E080930502189B04C01A9B02C01F
:101790001B9977C120910001822F90E00197992336
:1017A0001CF021502093000180910001811103C0A1
:1017B00084E18093F60180E1809305026EC118995F
:1017C00005C0189BFECF86E080930502199B04C0DC
:1017D0001A9B02C01B9955C120910001822F90E0F5
:1017E000019799231CF02150209300018091000162
:1017F000811103C084E18093F60180E180930502AA
:101800004CC11A9905C01A9BFECF87E08093050250
:10181000199B04C0189B02C01B9933C12091000181
:10182000822F90E0019799231CF021502093000112
:1018300080910001811103C084E18093F60180E171
:10184000809305022AC11B9905C01B9BFECF88E02F
:1018500080930502199B04C01A9B02C0189911C1FC
:1018600020910001822F90E0019799231CF02150D4
:101870002093000180910001811103C084E18093D5
:10188000F60180E18093050208C1199905C0199BF2
:10189000FECF89E080930502189B04C01A9B02C00A
:1018A0001B99EFC020910001822F90E001979923AE
:1018B0001CF021502093000180910001811103C090
:1018C00084E18093F60180E180930502E6C01899D7
:1018D00005C0189BFECF8AE080930502199B04C0C7
:1018E0001A9B02C01B99CDC020910001822F90E06D
:1018F000019799231CF02150209300018091000151
:10190000811103C084E18093F60180E18093050298
:10191000C4C0199905C0199BFECF8BE080930502C6
:10192000189B04C01A9B02C01B99ABC020910001F8
:10193000822F90E0019799231CF021502093000101
:1019400080910001811103C084E18093F60180E160
:1019500080930502A2C0189905C0189BFECF8CE0A9
:1019600080930502199B04C01A9B02C01B9989C071
:1019700020910001822F90E0019799231CF02150C3
:101980002093000180910001811103C084E18093C4
:10199000F60180E18093050280C01A9905C01A9B68
:1019A000FECF8DE080930502199B04C0189B02C0F6
:1019B0001B9967C020910001822F90E00197992325
:1019C0001CF021502093000180910001811103C07F
:1019D00084E18093F60180E1809305025EC01B994B
:1019E00005C01B9BFECF8EE080930502199B04C0AF
:1019F0001A9B02C0189945C020910001822F90E0E7
:101A0000019799231CF0215020930001809100013F
:101A1000811103C084E18093F60180E18093050287
:101A20003CC0189905C0189BFECF8FE0809305023B
:101A3000199B04C01A9B02C01B9923C0209100016E
:101A4000822F90E0019799231CF0215020930001F0
:101A500080910001811103C084E18093F60180E14F
:101A6000809305021AC01C999FC081E180930502F2
:101A7000A9C01B9912C01B9BFECF81E08093050279
:101A800015C08091050290E0FC013197E131F1052C
:101A900008F099C0EC50FF4F52C2809100010E94A3
:101AA0009C020E947F0280E182B90895809100012A
:101AB0000E949C020E947F0288E082B90895809172
:101AC00000010E949C020E947F0284E082B9089576
:101AD000809100010E949C020E947F0282E082B9F4
:101AE0000895809100010E949C020E947F0281E083
:101AF00082B90895809100010E949C020E947F0299
:101B000082E082B90895809100010E949C020E94A7
:101B10007F0281E082B90895809100010E949C02B9
:101B20000E947F0284E082B90895809100010E94A2
:101B30009C020E947F0288E082B908958091000192
:101B40000E949C020E947F0282E082B908958091E7
:101B500000010E949C020E947F0281E082B90895E8
:101B6000809100010E949C020E947F0282E082B963
:101B70000895809100010E949C020E947F0281E0F2
:101B800082B90895809100010E949C020E947F0208
:101B900084E082B90895809100010E949C020E9415
:101BA0007F0288E082B9089566EC71E081E00E94CE
:101BB0006801809100010E949C020E947F0281E0E6
:101BC00082B9089512B80895CF92DF92EF92FF92F2
:101BD0008FEF81B912B814B885B98AB91BB887B923
:101BE00018B80E9450010E9445018091F6018111B0
:101BF00026C00F2EF4EFCF2EDD24D394E12CF12C50
:101C0000F02DC0920101D0920201E0920301F09206
:101C10000401C092F701D092F801E092F901F0922C
:101C2000FA010E9482010E94C6028091FB01882372
:101C3000E1F31092FB018091F601882311F380916A
:101C4000F601813029F50F2EF8ECCF2ED12CE12CA6
:101C5000F12CF02DC0920101D0920201E09203011B
:101C6000F0920401C092F701D092F801E092F901DC
:101C7000F092FA010E9482010E943C038091FB01D4
:101C80008823E1F31092FB018091F601813011F37A
:101C90008091F601823031F50F2EF4EFCF2EDD2446
:101CA000D394E12CF12CF02DC0920101D0920201CD
:101CB000E0920301F0920401C092F701D092F80182
:101CC000E092F901F092FA010E9482010E942E0432
:101CD0008091FB018823E1F31092FB018091F601D2
:101CE000823011F38091F601833029F50F2EF8EC44
:101CF000CF2ED12CE12CF12CF02DC0920101D092ED
:101D00000201E0920301F0920401C092F701D09227
:101D1000F801E092F901F092FA010E9482010E941A
:101D20008A048091FB018823E1F31092FB018091EA
:101D3000F601833011F38091F601843031F50F2ED6
:101D4000F4EFCF2EDD24D394E12CF12CF02DC092B2
:101D50000101D0920201E0920301F0920401C092CD
:101D6000F701D092F801E092F901F092FA010E9495
:101D700082010E94B5058091FB018823E1F3109256
:101D8000FB018091F601843011F38091F6018530DA
:101D900029F50F2EF8ECCF2ED12CE12CF12CF02DC3
:101DA000C0920101D0920201E0920301F09204017D
:101DB000C092F701D092F801E092F901F092FA0195
:101DC0000E9482010E9425068091FB018823E1F395
:101DD0001092FB018091F601853011F38091F6019C
:101DE000863029F50F2EF4EFCF2EDD24D394E12C8D
:101DF000F12CF02DC0920101D0920201E09203017A
:101E0000F0920401C092F701D092F801E092F9013A
:101E1000F092FA010E948201CAD88091FB018823C6
:101E2000E1F31092FB018091F601863019F3809165
:101E3000F601873021F50F2EF8ECCF2ED12CE12CB6
:101E4000F12CF02DC0920101D0920201E092030129
:101E5000F0920401C092F701D092F801E092F901EA
:101E6000F092FA010E94820126D98091FB01882319
:101E7000E1F31092FB018091F601873019F3809114
:101E8000F601883029F50F2EF4EFCF2EDD24D39400
:101E9000E12CF12CF02DC0920101D0920201E092D0
:101EA0000301F0920401C092F701D092F801E09290
:101EB000F901F092FA010E9482012ADB8091FB0174
:101EC0008823E1F31092FB018091F601883019F329
:101ED0008091F601893029F50F2EFCE2CF2EDD240A
:101EE000D394E12CF12CF02DC0920101D09202018B
:101EF000E0920301F0920401C092F701D092F80140
:101F0000E092F901F092FA010E9482019DDB80913A
:101F1000FB018823E1F31092FB018091F6018930E7
:101F200019F3843129F467ED71E081E00E946801C2
:101F300080E090E0FF90EF90DF90CF900895EE0F5B
:0E1F4000FF1F0590F491E02D0994F894FFCF57
:101F4E00090100000053696D6F6E20507265737346
:101F5E00004C6576656C204F6E6500426567696E54
:101F6E00205072657373696E6700476F6F64204A05
:101F7E006F62004C6576656C2054776F004C65740B
:101F8E0073207465737420796F757220206D656D82
:101F9E006F7279206F7574004C6576656C2054688D
:101FAE00726565004C6567676F0053756363657393
:101FBE0073004C6576656C20466F757200476F6FC7
:101FCE0064204A6F6220736F2066617220416C6DCF
:101FDE006F737420646F6E6500417765736F6D6506
:101FEE006E657373004C6576656C20466976650088
:101FFE004F6E65204C6173742054696D65212121EB
:10200E0021212121210046616E7461737469632060
:10201E004A6F62203B2900596F75206861766520F2
:10202E006661696C6564204D4953455241424C5975
:06203E0020203A280000FA
:00000001FF
