:10000000E2C00000FDC00000FBC00000F9C000001D
:10001000F7C00000F5C00000F3C00000F1C0000010
:10002000EFC00000EDC00000EBC00000E9C0000020
:10003000E7C000000AC10000E3C00000E1C000000A
:10004000DFC00000DDC00000DBC00000D9C0000040
:10005000D7C00000D5C00000D3C00000D1C0000050
:10006000CFC00000CDC00000CBC00000C9C0000060
:10007000C7C00000C5C00000C3C00000C1C0000070
:10008000BFC00000BDC00000BBC000003F024F0267
:10009000530257025B025F02630273027502780229
:1000A0007B027E02810284029202A302B402C50294
:1000B000D602E702F8020F031203150318031B030D
:1000C0001E030C03210331033D0341034503490390
:1000D0004D035103550359035D0369036B036E031D
:1000E0007103740377037A037D038003830394030E
:1000F000B303C403D503E603F703080419042A0471
:100100003B04AB034F045204550458045B045E04E3
:100110006104640467044C046A047B0488048C044E
:100120009004940498049C04A004A404A804AC04BF
:10013000B004B404C004C204C504C804CB04CE0493
:10014000D104D404D704DA04DD04E004E304F404A5
:100150000B051C052D053E054F0560057105820543
:100160009305A405B505C605CC05E205E505E8053A
:10017000EB05EE05F105F405F705FA05FD050006AA
:100180000306DF0506061706240628062C06300699
:10019000340638063C064006440648064C0650061F
:1001A000540658065C0668066A066D0670067306F5
:1001B000760679067C067F068206850688068B060B
:1001C0008E069106940611241FBECFEFD0E4DEBF49
:1001D000CDBF11E0A0E0B1E0EEE2F0E100E00BBF46
:1001E00002C007900D92A430B107D9F721E0A4E036
:1001F000B1E001C01D92A531B207E1F79BD515C74B
:10020000FFCE8BE0809381008DE790E09093890092
:100210008093880082E080936F0010928500109296
:1002200084008091000190910101A0910201B091A0
:1002300003018093050190930601A0930701B093F9
:1002400008018FB780688FBF08951F920F920FB675
:100250000F9211248F939F93AF93BF9380910501C9
:1002600090910601A0910701B09108010197A109A1
:10027000B1098093050190930601A0930701B09303
:100280000801892B8A2B8B2B99F481E0809309013B
:100290008091000190910101A0910201B0910301B0
:1002A0008093050190930601A0930701B093080184
:1002B000BF91AF919F918F910F900FBE0F901F90A4
:1002C0001895809110018230C9F028F4882341F0FC
:1002D000813081F020C08330A9F08430B9F01BC098
:1002E00080910401811126C01C9924C081E0809373
:1002F000100122C082E08093100121C083E080932E
:10030000100120C084E0809310011FC010921001E2
:1003100081E08093040180911001823081F028F403
:10032000882341F0813041F00895833059F08430C2
:1003300071F40BC012B8089581E082B9089582E08B
:1003400082B9089584E082B9089588E082B9089559
:10035000809114018230A9F128F4882359F081306A
:10036000F9F05FC0843009F44EC0E0F1853009F443
:1003700050C057C080910401813009F075C01899B0
:1003800005C0189BFECF81E080931401199B04C027
:100390001A9B02C01B9945C085E08093140151C08F
:1003A000199905C0199BFECF82E080931401189B18
:1003B00004C01A9B02C01B9934C085E080931401CD
:1003C00040C01A9905C01A9BFECF83E080931401A8
:1003D000199B04C0189B02C01B9923C085E0809321
:1003E00014012FC01B9905C01B9BFECF84E0809396
:1003F0001401199B04C01A9B02C0189912C085E011
:10040000809314011EC01C9928C086E080931401BB
:1004100027C0189916C0189BFECF81E08093140165
:1004200013C0809114018330A9F028F4813061F069
:10043000823069F00895853021F078F0863081F0BF
:10044000089580E182B9089581E082B9089582E03B
:1004500082B9089584E082B9089588E082B9089548
:1004600012B882E080930401089580910F0190E01A
:100470008730910570F5FC01EA5BFF4FD0C5809194
:100480000401823081F5189903C081E080930F0147
:10049000189B1FC010920F011899FCCF24C082E056
:1004A00080930F0125C083E080930F0124C084E076
:1004B00080930F0123C085E080930F0122C086E066
:1004C00080930F0121C083E08093040110920F01FB
:1004D0000AC080910F0190E087309105B8F4FC01CB
:1004E000E35BFF4F9CC512B8089581E082B908957F
:1004F00084E082B9089588E082B9089581E082B9E4
:10050000089582E082B9089581E082B908958091CA
:100510000A0190E08730910508F070C0FC01EC5AA8
:10052000FF4F7DC5189905C0189BFECF81E08093D1
:100530000A01199B04C01A9B02C01B9962C087E084
:1005400080930A0169C01A9905C01A9BFECF82E008
:1005500080930A01199B04C0189B02C01B9951C0CB
:1005600087E080930A0158C01B9905C01B9BFECFF2
:1005700083E080930A01199B04C01A9B02C018995A
:1005800040C087E080930A0147C0189905C0189BB6
:10059000FECF84E080930A01199B04C01A9B02C01D
:1005A0001B992FC087E080930A0136C0199905C0B6
:1005B000199BFECF85E080930A01189B04C01A9B0B
:1005C00002C01B991EC087E080930A0125C01899BC
:1005D00005C0189BFECF86E080930A01199B04C0DA
:1005E0001A9B02C01B990DC087E080930A0114C0BA
:1005F0001C9924C088E080930A0123C010920A014C
:10060000089580910A0190E0FC013197E830F105EE
:10061000E0F4E55AFF4F03C580E182B9089581E017
:1006200082B9089584E082B9089588E082B9089576
:1006300081E082B9089582E082B9089581E082B9AB
:10064000089512B884E080930401089520910B016D
:10065000822F90E08A30910598F5FC01ED59FF4F0B
:10066000DEC4809104018430A1F5189932C0189B32
:10067000FECF81E080930B012EC082E080930B01BE
:100680002DC083E080930B012CC084E080930B018C
:100690002BC085E080930B012AC086E080930B017C
:1006A00029C087E080930B0128C088E080930B016C
:1006B00027C089E080930B0126C010920B0109C06E
:1006C000822F90E08A30910518F5FC01E359FF4F25
:1006D000A6C412B8089582E082B9089584E082B970
:1006E000089581E082B9089588E082B9089582E092
:1006F00082B9089584E082B9089581E082B90895AD
:1007000082E082B9089588E082B985E0809304018F
:1007100008958091110190E08B30910508F0B1C0EF
:10072000FC01E958FF4F7BC480910401853009F03A
:10073000D5C012B8199905C0199BFECF81E08093EE
:100740001101189B04C01A9B02C01B999AC08AE031
:1007500080931101A1C019999FC0199BFECF81E020
:10076000809311019CC01A9905C01A9BFECF82E0AC
:1007700080931101199B04C0189B02C01B9981C072
:100780008AE08093110188C0189905C0189BFECF9C
:1007900083E080931101199B04C01A9B02C01B992E
:1007A00070C08AE08093110177C01B9905C01B9B24
:1007B000FECF84E080931101199B04C01A9B02C0F4
:1007C00018995FC08AE08093110166C0199905C02D
:1007D000199BFECF85E080931101189B04C01A9BE2
:1007E00002C01B994EC08AE08093110155C01A992E
:1007F00005C01A9BFECF86E080931101199B04C0AF
:10080000189B02C01B993DC08AE08093110144C02F
:10081000189905C0189BFECF87E080931101199BA2
:1008200004C01A9B02C01B992CC08AE0809311015E
:1008300033C0199905C0199BFECF88E08093110140
:10084000189B04C01A9B02C01B991BC08AE08093AE
:10085000110122C01B9905C01B9BFECF89E080932C
:100860001101199B04C01A9B02C018990AC08AE0A2
:100870008093110111C01C992AC08BE08093110153
:1008800029C08091110190E0FC013197EB30F10516
:1008900028F5EE57FF4FC3C380E182B9089582E087
:1008A00082B9089584E082B9089581E082B90895FB
:1008B00088E082B9089582E082B9089584E082B91F
:1008C000089581E082B9089582E082B9089588E0B0
:1008D00082B9089512B886E08093040108952091AA
:1008E0000C01822F90E08D30910508F040C0FC0192
:1008F000E357FF4F94C380910401863009F040C054
:1009000018993EC0189BFECF81E080930C013AC03D
:1009100082E080930C0139C083E080930C0138C0E1
:1009200084E080930C0137C085E080930C0136C0D1
:1009300086E080930C0135C087E080930C0134C0C1
:1009400088E080930C0133C089E080930C0132C0B1
:100950008AE080930C0131C08BE080930C0130C0A1
:100960008CE080930C012FC010920C0109C0822FE3
:1009700090E08D30910560F5FC01E656FF4F4FC3C6
:1009800012B8089581E082B9089588E082B9089587
:1009900082E082B9089581E082B9089582E082B947
:1009A000089588E082B9089582E082B9089581E0CF
:1009B00082B9089588E082B9089581E082B90895E6
:1009C00082E082B9089581E082B987E080930401D2
:1009D000089580910E0190E08E30910508F0E4C0FA
:1009E000FC01E955FF4F1BC380910401873009F0DA
:1009F00011C112B8189905C0189BFECF81E08093F1
:100A00000E01199B04C01A9B02C01B99CDC08DE03A
:100A100080930E01D4C01B9905C01B9BFECF82E0C2
:100A200080930E01199B04C01A9B02C01899BCC088
:100A30008DE080930E01C3C0199905C0199BFECFAC
:100A400083E080930E01189B04C01A9B02C01B997F
:100A5000ABC08DE080930E01B2C0189905C0189B01
:100A6000FECF84E080930E01199B04C01A9B02C044
:100A70001B999AC08DE080930E01A1C0199905C001
:100A8000199BFECF85E080930E01189B04C01A9B32
:100A900002C01B9989C08DE080930E0190C01B9904
:100AA00005C01B9BFECF86E080930E01199B04C0FE
:100AB0001A9B02C0189978C08DE080930E017FC008
:100AC000199905C0199BFECF87E080930E01189BF2
:100AD00004C01A9B02C01B9967C08DE080930E0171
:100AE0006EC0189905C0189BFECF88E080930E0158
:100AF000199B04C01A9B02C01B9956C08DE08093BD
:100B00000E015DC01B9905C01B9BFECF89E0809341
:100B10000E01199B04C01A9B02C0189945C08DE0B4
:100B200080930E014CC0189905C0189BFECF8AE037
:100B300080930E01199B04C01A9B02C01B9934C0FC
:100B40008DE080930E013BC0199905C0199BFECF23
:100B50008BE080930E01189B04C01A9B02C01B9966
:100B600023C08DE080930E012AC0189905C0189B00
:100B7000FECF8CE080930E01199B04C01A9B02C02B
:100B80001B9912C08DE080930E0119C01C993BC0C7
:100B90008EE080930E013AC0189911C0189BFECFC9
:100BA00081E080930E010EC080910E0190E0FC0167
:100BB0003197EE30F10570F5EB54FF4F30C280E114
:100BC00082B9089581E082B9089588E082B90895D4
:100BD00082E082B9089581E082B9089582E082B905
:100BE000089588E082B9089582E082B9089581E08D
:100BF00082B9089588E082B9089581E082B90895A4
:100C000082E082B9089581E082B9089512B888E03F
:100C100080930401089520911201822F90E0803189
:100C2000910508F04CC0FC01ED53FF4FF8C18091D5
:100C30000401883009F04CC018994AC0189BFECFB7
:100C400081E08093120146C082E08093120145C08A
:100C500083E08093120144C084E08093120143C07A
:100C600085E08093120142C086E08093120141C06A
:100C700087E08093120140C088E0809312013FC05A
:100C800089E0809312013EC08AE0809312013DC04A
:100C90008BE0809312013CC08CE0809312013BC03A
:100CA0008DE0809312013AC08EE08093120139C02A
:100CB0008FE08093120138C01092120109C0822F78
:100CC00090E080319105A8F5FC01ED52FF4FA7C1DE
:100CD00012B8089588E082B9089584E082B9089531
:100CE00082E082B9089581E082B9089582E082B9F4
:100CF000089581E082B9089584E082B9089588E07A
:100D000082B9089582E082B9089581E082B9089598
:100D100082E082B9089581E082B9089584E082B9C1
:100D2000089588E082B9089581E082B989E08093CE
:100D300004010895CF92DF92EF92FF928FEF81B975
:100D400012B814B885B980910401811161C10F2EC8
:100D5000FCEBCF2EF2E0DF2EE12CF12CF02DC09237
:100D60000001D0920101E0920201F0920301C092D1
:100D70000501D0920601E0920701F092080141DAE4
:100D8000A0DA809109018823E1F310920901809192
:100D90000401882321F3813019F50F2EF8ECCF2EB2
:100DA000D12CE12CF12CF02DC0920001D092010148
:100DB000E0920201F0920301C0920501D092060177
:100DC000E0920701F09208011CDAC2DA8091090171
:100DD0008823E1F31092090180910401813021F30D
:100DE00080910401823021F50F2EF8EECF2EF3E032
:100DF000DF2EE12CF12CF02DC0920001D0920101E8
:100E0000E0920201F0920301C0920501D092060126
:100E1000E0920701F0920801F4D927DB80910901E3
:100E20008823E1F31092090180910401823021F3BB
:100E300080910401833021F50F2EF0E9CF2EDD24BF
:100E4000D394E12CF12CF02DC0920001D09201013D
:100E5000E0920201F0920301C0920501D0920601D6
:100E6000E0920701F0920801CCD951DB8091090191
:100E70008823E1F31092090180910401833021F36A
:100E800080910401843021F50F2EF8EECF2EF3E08F
:100E9000DF2EE12CF12CF02DC0920001D092010147
:100EA000E0920201F0920301C0920501D092060186
:100EB000E0920701F0920801A4D9C8DB80910901F2
:100EC0008823E1F31092090180910401843021F319
:100ED00080910401853021F50F2EF0E9CF2EDD241D
:100EE000D394E12CF12CF02DC0920001D09201019D
:100EF000E0920201F0920301C0920501D092060136
:100F0000E0920701F09208017CD903DC809109018D
:100F10008823E1F31092090180910401853021F3C7
:100F200080910401863021F50F2EF8EECF2EF3E0EC
:100F3000DF2EE12CF12CF02DC0920001D0920101A6
:100F4000E0920201F0920301C0920501D0920601E5
:100F5000E0920701F092080154D9C1DC80910901A7
:100F60008823E1F31092090180910401863021F376
:100F700080910401873021F50F2EF0E9CF2EDD247A
:100F8000D394E12CF12CF02DC0920001D0920101FC
:100F9000E0920201F0920301C0920501D092060195
:100FA000E0920701F09208012CD913DD809109012C
:100FB0008823E1F31092090180910401873021F325
:100FC00080910401883021F50F2EF0E2CF2EF3E05E
:100FD000DF2EE12CF12CF02DC0920001D092010106
:100FE000E0920201F0920301C0920501D092060145
:100FF000E0920701F092080104D90DDE8091090109
:101000008823E1F31092090180910401883021F3D3
:1010100080E090E0FF90EF90DF90CF900895EE0F8A
:0E102000FF1F0590F491E02D0994F894FFCF86
:04102E0001000000BD
:00000001FF
