S0150000326E645F66696E616C5F70726A2E73726563F7
S113000004C1000021C100001FC100001DC1000087
S11300101BC1000019C1000017C1000015C1000078
S113002013C1000011C100000FC100000DC1000088
S11300300BC100008BC1000007C1000005C1000016
S113004003C1000001C10000FFC00000FDC00000AA
S1130050FBC00000F9C00000F7C00000F5C00000BC
S1130060F3C00000F1C00000EFC00000EDC00000CC
S1130070EBC00000E9C00000E7C00000E5C00000DC
S1130080E3C00000E1C00000DFC000007D03910375
S1130090950399039D03A103A503BA03BC03BF03FE
S11300A0C203C503C803CB03DA03FC031E044004E4
S11300B062048404A604C304CA04D104D804DF047B
S11300C0E604BC04F004040517051B051F052305FD
S11300D027052B052F0533053705450547054A0533
S11300E04D0550055305560559055C055F05750515
S11300F0A505C705E9050B062D064F0671069306EF
S1130100B5069D05CF06D606DD06E406EB06F20627
S1130110F90600070707C8061207260739073D072F
S11301204107450749074D075107550759075D071B
S1130130610765077207740777077A077D078007E9
S11301408307860789078C078F0792079507AA07F5
S1130150D207F407160838085A087C089E08C00815
S1130160E2080409260948094E0969097009770952
S11301707E0985098C0993099A09A109A809AF097F
S1130180B6096209C209D609EB09EF09F309F709AF
S1130190FB09FF09030A070A0B0A0F0A130A170AC5
S11301A01B0A1F0A230A300A320A350A380A3B0A94
S11301B03E0A410A440A470A4A0A4D0A500A530AA7
S11301C0560A590A5C0A720A9A0ABC0ADE0A000B29
S11301D0220B440B660B880BAA0BCC0BEE0B100CFA
S11301E0320C540C760C7C0C990CA20CAB0CB40C99
S11301F0BD0CC60CCF0CD80CE10CEA0CF30CFC0CB7
S1130200050D0E0D170D900C250D11241FBECFEFFB
S1130210D0E4DEBFCDBF11E0A0E0B1E0E8E2FEE152
S113022000E00BBF02C007900D92AA3EB107D9F7B8
S113023021E0AAEEB1E001C01D92AC3FB207E1F7A4
S11302400E94270D0C94120FDBCE181619069CF48D
S113025040E050E077E063E00BC00000215031093A
S113026021153105D1F74F5F5F4F4817590719F032
S1130270272F362FF2CF08955E9888B95F9A000031
S11302805F9882E090E0E1CF089581E0F5CF089592
S1130290813118F48158F0CF08958155EDCF089538
S11302A084E690E0D2DF88E3E7DF86E0E5DF8FE0F5
S11302B0E3DF81E0E1DF8AE090E0C7CF08955E9A52
S11302C088B95F9A00005F9881E090E0BECF0895FE
S11302D00F931F93CF93DF93182FEB01D6DF888101
S11302E0882359F001E0010F812FD2DF8991E7DFE4
S11302F08881882311F0102FF5CFDF91CF911F91C2
S11303000F9108958BE0809381008DE790E09093A6
S113031089008093880082E080936F0010928500AA
S1130320109284008091010190910201A091030137
S1130330B09104018093EB019093EC01A093ED0143
S1130340B093EE018FB780688FBF08951F920F920C
S11303500FB60F9211248F939F93AF93BF93809105
S1130360EB019091EC01A091ED01B091EE010197A8
S1130370A109B1098093EB019093EC01A093ED01E5
S1130380B093EE01892B8A2B8B2B99F481E0809317
S1130390EF018091010190910201A0910301B091BC
S11303A004018093EB019093EC01A093ED01B093D1
S11303B0EE01BF91AF919F918F910F900FBE0F905F
S11303C01F90189520E030E090E04BB1407F4860EA
S11303D04BB96BB1AC01022E02C0559547950A94F6
S11303E0E2F74170462B4BB9599A2F5F3F4F2830A3
S11303F0310559F75A9A8BB1807F8BB908958930AA
S1130400A1F08830A1F08730A1F08630A1F08530CA
S1130410A1F08430A1F08330A1F08230A1F08130CA
S1130420A1F08823A1F080E0089589E1089580E097
S113043008958FE1089580E4089588E4089588E993
S113044008958CE0089584E208958EE9089582E089
S113045008958091F601823001F128F4882341F057
S11304608130B9F027C08330E1F08430F1F022C04C
S113047065E071E081E02CDF8091EA0181111AC00E
S11304801C9904C081E08093F60129C01092F60102
S113049020C082E08093F6012AC083E08093F601B5
S11304A029C084E08093F60128C01092F60181E00F
S11304B08093EA018091F6018230C9F028F4882300
S11304C041F0813061F008958330A1F08430B9F4B3
S11304D014C012B88091000192DF74CF0895D5DE64
S11304E061E171E081E0F4DE81E082B9089582E0A7
S11304F082B9089584E082B9089588E082B90895A4
S11305008091FB01823009F45BC028F4882361F0F8
S11305108130A1F1A7C0843009F496C008F472C0F8
S1130520853009F497C09EC08091EA01813009F0BA
S1130530D8C06BE171E0CCDE189905C0189BFECFE2
S113054081E08093FB01199B04C01A9B02C01B9994
S113055089C020910001822F90E0019799231CF01B
S113056021502093000180910001811103C084E196
S11305708093EA0185E08093FB0184C0199905C04A
S1130580199BFECF82E08093FB01189B04C01A9B49
S113059002C01B9967C020910001822F90E001974F
S11305A099231CF0215020930001809100018111B6
S11305B003C084E18093EA0185E08093FB0162C07B
S11305C01A9905C01A9BFECF83E08093FB01199B07
S11305D004C0189B02C01B9945C020910001822FC2
S11305E090E0019799231CF0215020930001809101
S11305F00001811103C084E18093EA0185E08093C6
S1130600FB0140C01B9905C01B9BFECF84E0809377
S1130610FB01199B04C01A9B02C0189923C02091A6
S11306200001822F90E0019799231CF02150209320
S1130630000180910001811103C084E18093EA01EB
S113064085E08093FB011EC01C9938C086E080932E
S1130650FB013FC0189916C0189BFECF81E0809320
S1130660FB0117C08091FB01833009F128F481302C
S113067081F08230A9F00895853021F0F8F08630B9
S113068041F1089580E182B980910001B8DE9ACEEB
S1130690089581E082B980910001B1DE93CE08957E
S11306A082E082B980910001AADE8CCE089584E0B4
S11306B082B980910001A3DE85CE089588E082B9D5
S11306C06AE271E081E004DE8091000198DE7ACE76
S11306D0089512B88091000192DE74DE82E0809366
S11306E0EA0108958091F50190E087309105B8F50D
S11306F0FC01EA5BFF4F0C940C0F8091EA018230FD
S1130700C9F563E371E081E0E3DD189903C081E09A
S11307108093F501189B23C01092F5011899FCCF22
S113072029C082E08093F5012AC083E08093F5011B
S113073029C084E08093F50128C085E08093F50109
S113074027C086E08093F50126C06DE371E081E067
S1130750BFDD83E08093EA011092F5010BC0809124
S1130760F50190E087309105C0F4FC01E35BFF4F95
S11307700C940C0F12B8089581E082B9089584E0B6
S113078082B9089588E082B9089581E082B9089514
S113079082E082B9089581E082B908958091F001E0
S11307A090E08730910508F0D7C0FC01EC5AFF4F68
S11307B00C940C0F189905C0189BFECF81E0809310
S11307C0F001199B04C01A9B02C01B99C8C0209158
S11307D00001822F90E0019799231CF0215020936F
S11307E0000180910001811103C084E18093EA013A
S11307F087E08093F001C0C01A9905C01A9BFECF10
S113080082E08093F001199B04C0189B02C01B99DD
S1130810A6C020910001822F90E0019799231CF03B
S113082021502093000180910001811103C084E1D3
S11308308093EA0187E08093F0019EC01B9905C074
S11308401B9BFECF83E08093F001199B04C01A9B8D
S113085002C0189984C020910001822F90E0019772
S113086099231CF0215020930001809100018111F3
S113087003C084E18093EA0187E08093F0017CC0A7
S1130880189905C0189BFECF84E08093F001199B52
S113089004C01A9B02C01B9962C020910001822FE0
S11308A090E0019799231CF021502093000180913E
S11308B00001811103C084E18093EA0187E0809301
S11308C0F0015AC0199905C0199BFECF85E08093A9
S11308D0F001189B04C01A9B02C01B9940C02091D0
S11308E00001822F90E0019799231CF0215020935E
S11308F0000180910001811103C084E18093EA0129
S113090087E08093F00138C0189905C0189BFECF8A
S113091086E08093F001199B04C01A9B02C01B99C6
S11309201EC020910001822F90E0019799231CF0B2
S113093021502093000180910001811103C084E1C2
S11309408093EA0187E08093F00116C01C993EC0B1
S113095088E08093F00144C01092F00108958091E2
S1130960F00190E0FC013197E830F10508F040C057
S1130970E55AFF4F0C940C0F80E182B9809100017D
S11309803EDD20CD089581E082B98091000137DDFC
S113099019CD089584E082B98091000130DD12CD33
S11309A0089588E082B98091000129DD0BCD089576
S11309B081E082B98091000122DD04CD089582E0B6
S11309C082B9809100011BDDFDCC089581E082B9DC
S11309D06AE271E07DDC8091000111DDF3CC0895C1
S11309E012B8809100010BDDEDDC84E08093EA0114
S11309F008958091F10190E08A309105D8F5FC01C9
S1130A00ED59FF4F0C940C0F68E571E081E060DC58
S1130A108091EA01843071F5189906C0189BFECFC5
S1130A2081E08093F10133C01092F1012EC082E085
S1130A308093F1012FC083E08093F1012EC084E004
S1130A408093F1012DC085E08093F1012CC086E0F4
S1130A508093F1012BC087E08093F1012AC088E0E4
S1130A608093F10129C089E08093F10128C010929C
S1130A70F1010BC08091F10190E08A30910540F5BD
S1130A80FC01E359FF4F0C940C0F12B8089582E057
S1130A9082B9089584E082B9089581E082B9089505
S1130AA088E082B9089582E082B9089584E082B929
S1130AB0089581E082B9089582E082B9089588E0BA
S1130AC082B964E671E081E003DC85E08093EA01A9
S1130AD008958091F70190E08B30910508F04BC1A7
S1130AE0FC01E958FF4F0C940C0F8091EA0185300A
S1130AF009F0A0C112B8199905C0199BFECF81E075
S1130B008093F701189B04C01A9B02C01B9933C140
S1130B1020910001822F90E0019799231CF021502D
S1130B202093000180910001811103C084E180932E
S1130B30EA018AE08093F7012BC1199929C1199B15
S1130B40FECF81E08093F7012AC11A9905C01A9B50
S1130B50FECF82E08093F701199B04C0189B02C06A
S1130B601B9909C120910001822F90E001979923DC
S1130B701CF021502093000180910001811103C0D9
S1130B8084E18093EA018AE08093F70101C1189916
S1130B9005C0189BFECF83E08093F701199B04C026
S1130BA01A9B02C01B99E7C020910001822F90E09C
S1130BB0019799231CF0215020930001809100019A
S1130BC0811103C084E18093EA018AE08093F701F4
S1130BD0DFC01B9905C01B9BFECF84E08093F70107
S1130BE0199B04C01A9B02C01899C5C0209100012A
S1130BF0822F90E0019799231CF02150209300014B
S1130C0080910001811103C084E18093EA018AE0AC
S1130C108093F701BDC0199905C0199BFECF85E0EB
S1130C208093F701189B04C01A9B02C01B99A3C0B0
S1130C3020910001822F90E0019799231CF021500C
S1130C402093000180910001811103C084E180930D
S1130C50EA018AE08093F7019BC01A9905C01A9BA8
S1130C60FECF86E08093F701199B04C0189B02C055
S1130C701B9981C020910001822F90E00197992354
S1130C801CF021502093000180910001811103C0C8
S1130C9084E18093EA018AE08093F70179C018998E
S1130CA005C0189BFECF87E08093F701199B04C011
S1130CB01A9B02C01B995FC020910001822F90E013
S1130CC0019799231CF02150209300018091000189
S1130CD0811103C084E18093EA018AE08093F701E3
S1130CE057C0199905C0199BFECF88E08093F7017E
S1130CF0189B04C01A9B02C01B993DC0209100019F
S1130D00822F90E0019799231CF021502093000139
S1130D1080910001811103C084E18093EA018AE09B
S1130D208093F70135C01B9905C01B9BFECF89E05A
S1130D308093F701199B04C01A9B02C018991BC029
S1130D4020910001822F90E0019799231CF02150FB
S1130D502093000180910001811103C084E18093FC
S1130D60EA018AE08093F70113C01C9950C08BE01C
S1130D708093F70157C08091F70190E0FC0131970F
S1130D80EB30F10508F056C0EE57FF4F0C940C0FF2
S1130D908091000134DB16DB80E182B908958091F3
S1130DA000012DDB0FDB82E082B908958091000100
S1130DB026DB08DB84E082B90895809100011FDB03
S1130DC001DB81E082B908958091000118DBFADA31
S1130DD088E082B908958091000111DBF3DA82E0A2
S1130DE082B90895809100010ADBECDA84E082B9CB
S1130DF008958091000103DBE5DA81E082B908956A
S1130E0080910001FCDADEDA82E082B908956AE6B4
S1130E1071E081E05DDA80910001F1DAD3DA88E0F3
S1130E2082B9089512B880910001E9DACBDA86E03C
S1130E308093EA0108958091F20190E08D3091054C
S1130E4008F046C0FC01E357FF4FE6C762E771E0D4
S1130E5081E03EDA8091EA018630D1F5189906C026
S1130E60189BFECF81E08093F2013EC01092F20104
S1130E7039C082E08093F2013AC083E08093F201AA
S1130E8039C084E08093F20138C085E08093F20198
S1130E9037C086E08093F20136C087E08093F20188
S1130EA035C088E08093F20134C089E08093F20178
S1130EB033C08AE08093F20132C08BE08093F20168
S1130EC031C08CE08093F20130C01092F2010AC06C
S1130ED08091F20190E08D30910580F5FC01E65699
S1130EE0FF4F9AC712B8089581E082B9089588E047
S1130EF082B9089582E082B9089581E082B90895A3
S1130F0082E082B9089588E082B9089582E082B9C6
S1130F10089581E082B9089588E082B9089581E056
S1130F2082B9089582E082B908956DE771E081E0A5
S1130F30CFD981E082B987E08093EA010895809156
S1130F40F40190E08E30910508F0B0C1FC01E95540
S1130F50FF4F62C78091EA01873009F01BC212B8C3
S1130F60189905C0189BFECF81E08093F401199B6A
S1130F7004C01A9B02C01B9999C120910001822FC1
S1130F8090E0019799231CF0215020930001809157
S1130F900001811103C084E18093EA018DE0809314
S1130FA0F40190C11B9905C01B9BFECF82E0809386
S1130FB0F401199B04C01A9B02C0189977C12091AF
S1130FC00001822F90E0019799231CF02150209377
S1130FD0000180910001811103C084E18093EA0142
S1130FE08DE08093F4016EC1199905C0199BFECF61
S1130FF083E08093F401189B04C01A9B02C01B99E0
S113100055C120910001822F90E0019799231CF093
S113101021502093000180910001811103C084E1DB
S11310208093EA018DE08093F4014CC1189905C0C6
S1131030189BFECF84E08093F401199B04C01A9B93
S113104002C01B9933C120910001822F90E00197C7
S113105099231CF0215020930001809100018111FB
S113106003C084E18093EA018DE08093F4012AC1F6
S1131070199905C0199BFECF85E08093F401189B54
S113108004C01A9B02C01B9911C120910001822F38
S113109090E0019799231CF0215020930001809146
S11310A00001811103C084E18093EA018DE0809303
S11310B0F40108C11B9905C01B9BFECF86E08093F9
S11310C0F401199B04C01A9B02C01899EFC0209127
S11310D00001822F90E0019799231CF02150209366
S11310E0000180910001811103C084E18093EA0131
S11310F08DE08093F401E6C0199905C0199BFECFD9
S113110087E08093F401189B04C01A9B02C01B99CA
S1131110CDC020910001822F90E0019799231CF00B
S113112021502093000180910001811103C084E1CA
S11311308093EA018DE08093F401C4C0189905C03E
S1131140189BFECF88E08093F401199B04C01A9B7E
S113115002C01B99ABC020910001822F90E001973F
S113116099231CF0215020930001809100018111EA
S113117003C084E18093EA018DE08093F401A2C06E
S11311801B9905C01B9BFECF89E08093F401199B3A
S113119004C01A9B02C0189989C020910001822FB3
S11311A090E0019799231CF0215020930001809135
S11311B00001811103C084E18093EA018DE08093F2
S11311C0F40180C0189905C0189BFECF8AE0809373
S11311D0F401199B04C01A9B02C01B9967C020919B
S11311E00001822F90E0019799231CF02150209355
S11311F0000180910001811103C084E18093EA0120
S11312008DE08093F4015EC0199905C0199BFECF4F
S11312108BE08093F401189B04C01A9B02C01B99B5
S113122045C020910001822F90E0019799231CF082
S113123021502093000180910001811103C084E1B9
S11312408093EA018DE08093F4013CC0189905C0B5
S1131250189BFECF8CE08093F401199B04C01A9B69
S113126002C01B9923C020910001822F90E00197B6
S113127099231CF0215020930001809100018111D9
S113128003C084E18093EA018DE08093F4011AC0E5
S11312901C996CC08EE08093F40174C0189912C03C
S11312A0189BFECF81E08093F40113C08091F40178
S11312B090E0FC013197EE30F10508F06BC0EB547F
S11312C0FF4FAAC5809100019AD87CD880E182B9E9
S11312D008958091000193D875D881E082B908956A
S11312E0809100018CD86ED888E082B908958091ED
S11312F0000185D867D882E082B908958091000101
S11313007ED860D881E082B908958091000177D8B1
S113131059D882E082B908958091000170D852D8DA
S113132088E082B908958091000169D84BD882E0A1
S113133082B908958091000162D844D881E082B9CD
S11313400895809100015BD83DD888E082B9089562
S11313508091000154D836D881E082B908958091F3
S113136000014DD82FD882E082B9089569E971E06F
S113137081E00E9468018091000141D823D881E076
S113138082B90895809100013AD81CD812B888E037
S11313908093EA0108958091F80190E080319105ED
S11313A008F054C0FC01ED53FF4F36C565EA71E007
S11313B081E00E9468018091EA01883009F046C00A
S11313C0189906C0189BFECF81E08093F8014AC0AB
S11313D01092F80145C082E08093F80146C083E092
S11313E08093F80145C084E08093F80144C085E00F
S11313F08093F80143C086E08093F80142C087E0FF
S11314008093F80141C088E08093F80140C089E0EE
S11314108093F8013FC08AE08093F8013EC08BE0DE
S11314208093F8013DC08CE08093F8013CC08DE0CE
S11314308093F8013BC08EE08093F8013AC08FE0BE
S11314408093F80139C01092F8010AC08091F80124
S113145090E080319105D0F5FC01ED52FF4FDCC4E2
S113146012B8089588E082B9089584E082B9089595
S113147082E082B9089581E082B9089582E082B958
S1131480089581E082B9089584E082B9089588E0DE
S113149082B9089582E082B9089581E082B90895FD
S11314A082E082B9089581E082B9089584E082B926
S11314B0089588E082B9089560EB71E081E00E94AC
S11314C0680181E082B989E08093EA0108958091FE
S11314D0F90190E08131910508F016C2FC01ED514B
S11314E0FF4F9AC48091EA01893009F0AFC212B863
S11314F01B9905C01B9BFECF81E08093F901199BCA
S113150004C01A9B02C01899FFC120910001822FC8
S113151090E0019799231CF02150209300018091C1
S11315200001811103C084E18093EA0180E180938A
S1131530F901F6C11A9905C01A9BFECF82E0809387
S1131540F901199B04C0189B02C01B99DDC12091AD
S11315500001822F90E0019799231CF021502093E1
S1131560000180910001811103C084E18093EA01AC
S113157080E18093F901D4C1199905C0199BFECF6C
S113158083E08093F901189B04C01A9B02C01B9945
S1131590BBC120910001822F90E0019799231CF098
S11315A021502093000180910001811103C084E146
S11315B08093EA0180E18093F901B2C1189905C0D2
S11315C0189BFECF84E08093F901199B04C01A9BF9
S11315D002C01B9999C120910001822F90E00197CC
S11315E099231CF021502093000180910001811166
S11315F003C084E18093EA0180E18093F90190C102
S1131600199905C0199BFECF85E08093F901189BB9
S113161004C01A9B02C01B9977C120910001822F3C
S113162090E0019799231CF02150209300018091B0
S11316300001811103C084E18093EA0180E1809379
S1131640F9016EC1189905C0189BFECF86E08093FE
S1131650F901199B04C01A9B02C01B9955C1209122
S11316600001822F90E0019799231CF021502093D0
S1131670000180910001811103C084E18093EA019B
S113168080E18093F9014CC11A9905C01A9BFECFE1
S113169087E08093F901199B04C0189B02C01B9931
S11316A033C120910001822F90E0019799231CF00F
S11316B021502093000180910001811103C084E135
S11316C08093EA0180E18093F9012AC11B9905C046
S11316D01B9BFECF88E08093F901199B04C01A9BE1
S11316E002C0189911C120910001822F90E0019746
S11316F099231CF021502093000180910001811155
S113170003C084E18093EA0180E18093F90108C178
S1131710199905C0199BFECF89E08093F901189BA4
S113172004C01A9B02C01B99EFC020910001822FB4
S113173090E0019799231CF021502093000180919F
S11317400001811103C084E18093EA0180E1809368
S1131750F901E6C0189905C0189BFECF8AE0809372
S1131760F901199B04C01A9B02C01B99CDC020919A
S11317700001822F90E0019799231CF021502093BF
S1131780000180910001811103C084E18093EA018A
S113179080E18093F901C4C0199905C0199BFECF5B
S11317A08BE08093F901189B04C01A9B02C01B991B
S11317B0ABC020910001822F90E0019799231CF087
S11317C021502093000180910001811103C084E124
S11317D08093EA0180E18093F901A2C0189905C0C1
S11317E0189BFECF8CE08093F901199B04C01A9BCF
S11317F002C01B9989C020910001822F90E00197BB
S113180099231CF021502093000180910001811143
S113181003C084E18093EA0180E18093F90180C0F0
S11318201A9905C01A9BFECF8DE08093F901199B8C
S113183004C0189B02C01B9967C020910001822F2D
S113184090E0019799231CF021502093000180918E
S11318500001811103C084E18093EA0180E1809357
S1131860F9015EC01B9905C01B9BFECF8EE08093DF
S1131870F901199B04C01A9B02C0189945C0209114
S11318800001822F90E0019799231CF021502093AE
S1131890000180910001811103C084E18093EA0179
S11318A080E18093F9013CC0189905C0189BFECFD4
S11318B08FE08093F901199B04C01A9B02C01B9905
S11318C023C020910001822F90E0019799231CF0FE
S11318D021502093000180910001811103C084E113
S11318E08093EA0180E18093F9011AC01C999FC09A
S11318F081E18093F901A9C01B9912C01B9BFECF03
S113190081E08093F90115C08091F90190E0FC0118
S11319103197E131F10508F099C0EC50FF4F7CC2DA
S1131920809100010E94FF010E94E20180E182B9DE
S11319300895809100010E94FF010E94E20188E065
S113194082B90895809100010E94FF010E94E20182
S113195084E082B90895809100010E94FF010E94F1
S1131960E20182E082B90895809100010E94FF01A2
S11319700E94E20181E082B90895809100010E94F1
S1131980FF010E94E20182E082B908958091000182
S11319900E94FF010E94E20181E082B908958091D2
S11319A000010E94FF010E94E20184E082B90895CF
S11319B0809100010E94FF010E94E20188E082B947
S11319C00895809100010E94FF010E94E20182E0DB
S11319D082B90895809100010E94FF010E94E201F2
S11319E081E082B90895809100010E94FF010E9464
S11319F0E20182E082B90895809100010E94FF0112
S1131A000E94E20181E082B90895809100010E9460
S1131A10FF010E94E20184E082B9089580910001EF
S1131A200E94FF010E94E20188E082B9089566ECF9
S1131A3071E081E00E946801809100010E94FF0131
S1131A400E94E20181E082B9089512B80895CF920C
S1131A50DF92EF92FF928FEF81B912B814B885B973
S1131A608AB91BB887B918B80E9450018091EA015D
S1131A708111CBC10E9445018091EA01811126C0E8
S1131A800F2EF4EFCF2EDD24D394E12CF12CF02D86
S1131A90C0920101D0920201E0920301F09204018C
S1131AA0C092EB01D092EC01E092ED01F092EE01D4
S1131AB00E9482010E9429028091EF018823E1F3B0
S1131AC01092EF018091EA01882311F38091EA01D9
S1131AD0813029F50F2EF8ECCF2ED12CE12CF12CEE
S1131AE0F02DC0920101D0920201E0920301F09224
S1131AF00401C092EB01D092EC01E092ED01F0926E
S1131B00EE010E9482010E9480028091EF018823ED
S1131B10E1F31092EF018091EA01813011F3809199
S1131B20EA01823031F50F2EF4EFCF2EDD24D39469
S1131B30E12CF12CF02DC0920101D0920201E0922F
S1131B400301F0920401C092EB01D092EC01E09207
S1131B50ED01F092EE010E9482010E9472038091D5
S1131B60EF018823E1F31092EF018091EA018230C2
S1131B7011F38091EA01833029F50F2EF8ECCF2E72
S1131B80D12CE12CF12CF02DC0920101D092020154
S1131B90E0920301F0920401C092EB01D092EC01B7
S1131BA0E092ED01F092EE010E9482010E94CE03C8
S1131BB08091EF018823E1F31092EF018091EA0113
S1131BC0833011F38091EA01843031F50F2EF4EF64
S1131BD0CF2EDD24D394E12CF12CF02DC092010101
S1131BE0D0920201E0920301F0920401C092EB0151
S1131BF0D092EC01E092ED01F092EE010E9482019C
S1131C000E94F9048091EF018823E1F31092EF011F
S1131C108091EA01843011F38091EA01853029F53D
S1131C200F2EF8ECCF2ED12CE12CF12CF02DC092FC
S1131C300101D0920201E0920301F0920401C092EA
S1131C40EB01D092EC01E092ED01F092EE010E94E2
S1131C5082010E9469058091EF018823E1F31092CB
S1131C60EF018091EA01853011F38091EA01863019
S1131C7029F50F2EF4EFCF2EDD24D394E12CF12C93
S1131C80F02DC0920101D0920201E0920301F09282
S1131C900401C092EB01D092EC01E092ED01F092CC
S1131CA0EE010E948201C7D88091EF018823E1F3FD
S1131CB01092EF018091EA01863019F38091EA01D4
S1131CC0873021F50F2EF8ECCF2ED12CE12CF12CFE
S1131CD0F02DC0920101D0920201E0920301F09232
S1131CE00401C092EB01D092EC01E092ED01F0927C
S1131CF0EE010E94820123D98091EF018823E1F350
S1131D001092EF018091EA01873019F38091EA0182
S1131D10883029F50F2EF4EFCF2EDD24D394E12C57
S1131D20F12CF02DC0920101D0920201E092030146
S1131D30F0920401C092EB01D092EC01E092ED012B
S1131D40F092EE010E94820126DB8091EF0188234C
S1131D50E1F31092EF018091EA01883019F3809148
S1131D60EA01893029F50F2EFCE2CF2EDD24D3942D
S1131D70E12CF12CF02DC0920101D0920201E092ED
S1131D800301F0920401C092EB01D092EC01E092C5
S1131D90ED01F092EE010E94820199DB8091EF0146
S1131DA08823E1F31092EF018091EA01893019F35D
S1131DB08091EA01843149F50F2EF8EECF2EF3E03D
S1131DC0DF2EE12CF12CF02DC0920101D092020102
S1131DD0E0920301F0920401C092EB01D092EC0175
S1131DE0E092ED01F092EE010E94820167ED71E054
S1131DF081E00E9468018091EF018823E1F3109251
S1131E00EF018091EA018431F9F280E090E0FF90E3
S1131E10EF90DF90CF900895EE0FFF1F0590F4919F
S10B1E20E02D0994F894FFCFB2
S1131E28090100000053696D6F6E20507265737369
S1131E38004C6576656C204F6E6500426567696E77
S1131E48205072657373696E6700476F6F64204A28
S1131E586F62004C6576656C2054776F004C65742E
S1131E6873207465737420796F757220206D656DA5
S1131E786F7279206F7574004C6576656C205468B0
S1131E88726565004C6567676F00537563636573B6
S1131E9873004C6576656C20466F757200476F6FEA
S1131EA864204A6F6220736F2066617220416C6DF2
S1131EB86F737420646F6E6500417765736F6D6529
S1131EC86E657373004C6576656C204669766500AB
S1131ED84F6E65204C6173742054696D652121210E
S1131EE821212121210046616E7461737469632084
S1131EF84A6F62203B2900596F7520686176652016
S10D1F086661696C6564203A2800E4
S9030000FC
