:1000000004C1000021C100001FC100001DC100008B
:100010001BC1000019C1000017C1000015C100007C
:1000200013C1000011C100000FC100000DC100008C
:100030000BC100002EC1000007C1000005C1000077
:1000400003C1000001C10000FFC00000FDC00000AE
:10005000FBC00000F9C00000F7C00000F5C00000C0
:10006000F3C00000F1C00000EFC00000EDC00000D0
:10007000EBC00000E9C00000E7C00000E5C00000E0
:10008000E3C00000E1C00000DFC000000003100377
:10009000140318031C032003240334033603390319
:1000A0003C033F0342034503530372039103B00330
:1000B000CF03EE030D042904300437043E04450445
:1000C0004C04220453046704730477047B047F0404
:1000D000830487048B048F0493049F04A104A40465
:1000E000A704AA04AD04B004B304B604B904CA0456
:1000F000E904FA040B051C052D053E054F056005B6
:100100007105E104850588058B058E05910594052B
:1001100097059A059D058205A005B105BE05C20596
:10012000C605CA05CE05D205D605DA05DE05E20507
:10013000E605EA05F605F805FB05FE0501060406D9
:1001400007060A060D0610061306160619062A06E5
:10015000410652066306740685069606A706B8068B
:10016000C906DA06EB06FC06020718071B071E077E
:100170002107240727072A072D07300733073607EB
:10018000390715073C074D075A075E0762076607E0
:100190006A076E07720776077A077E078207860767
:1001A0008A078E0792079E07A007A307A607A9073D
:1001B000AC07AF07B207B507B807BB07BE07C10753
:1001C000C407C707CA07DB07F20703081408250896
:1001D00036084708580869087A088B089C08AD0853
:1001E000BE08CF08E008E608FC08FF080209050978
:1001F00008090B090E091109140917091A091D0923
:10020000200923092609F908290911241FBECFEF67
:10021000D0E4DEBFCDBF11E0A0E0B1E0E0EBF5E15E
:1002200000E00BBF02C007900D92A630B107D9F7CE
:1002300021E0A6E0B1E001C01D92A831B207E1F7CC
:100240000E942B090C94D60ADBCE8BE080938100B0
:100250008DE790E0909389008093880082E08093FE
:100260006F0010928500109284008091010190919E
:100270000201A0910301B0910401809307019093C2
:100280000801A0930901B0930A018FB780688FBF5E
:1002900008951F920F920FB60F9211248F939F9380
:1002A000AF93BF938091070190910801A09109013C
:1002B000B0910A010197A109B109809307019093B8
:1002C0000801A0930901B0930A01892B8A2B8B2B7B
:1002D00099F481E080930B018091010190910201DA
:1002E000A0910301B091040180930701909308014C
:1002F000A0930901B0930A01BF91AF919F918F9193
:100300000F900FBE0F901F90189520E030E090E006
:100310004BB1407F48604BB96BB1AC01022E02C0BB
:10032000559547950A94E2F74170462B4BB9599A77
:100330002F5F3F4F2830310559F75A9A8BB1807F94
:100340008BB908958930A1F08830A1F08730A1F0F1
:100350008630A1F08530A1F08430A1F08330A1F087
:100360008230A1F08130A1F08823A1F080E00895CF
:1003700089E1089580E008958FE1089580E408956B
:1003800088E4089588E908958CE0089584E208954A
:100390008EE9089582E00895809112018230C9F0BB
:1003A00028F4882341F0813081F020C08330A9F007
:1003B0008430B9F01BC080910601811126C01C99C0
:1003C00024C081E08093120126C082E08093120154
:1003D00025C083E08093120124C084E08093120141
:1003E00023C01092120181E08093060180911201D6
:1003F0008230A1F028F4882341F0813061F0089523
:10040000833079F0843091F40FC012B880910001EC
:1004100099DF7BCF089581E082B9089582E082B9A7
:10042000089584E082B9089588E082B908958091A2
:100430001701823009F452C028F4882361F081301A
:1004400071F198C0843009F487C008F466C0853023
:1004500009F488C08FC080910601813009F0C5C0C1
:10046000189905C0189BFECF81E080931701199B56
:1004700004C01A9B02C01B997DC020910001822FED
:1004800090E00197992324F021502093000103C0AC
:1004900084E18093060185E0809317017BC0199960
:1004A00005C0199BFECF82E080931701189B04C002
:1004B0001A9B02C01B995EC020910001822F90E020
:1004C0000197992324F021502093000103C084E177
:1004D0008093060185E0809317015CC01A9905C0DE
:1004E0001A9BFECF83E080931701199B04C0189BD1
:1004F00002C01B993FC020910001822F90E001971C
:10050000992324F021502093000103C084E18093BB
:10051000060185E0809317013DC01B9905C01B9B18
:10052000FECF84E080931701199B04C01A9B02C080
:10053000189920C020910001822F90E00197992303
:1005400024F021502093000103C084E18093060130
:1005500085E0809317011EC01C9938C086E0809307
:1005600017013BC0189916C0189BFECF81E08093FD
:10057000170117C080911701833009F128F48130E9
:1005800081F08230A9F00895853021F0F8F08630AE
:1005900021F1089580E182B980910001D3DEB5CECA
:1005A000089581E082B980910001CCDEAECE08953D
:1005B00082E082B980910001C5DEA7CE089584E073
:1005C00082B980910001BEDEA0CE089588E082B994
:1005D00080910001B7DE99CE089512B88091000194
:1005E000B1DE93DE82E080930601089580911101CF
:1005F00090E08730910570F5FC01EA5BFF4FD0C7B2
:1006000080910601823081F5189903C081E08093C2
:100610001101189B1FC0109211011899FCCF24C022
:1006200082E08093110125C083E08093110124C0F2
:1006300084E08093110123C085E08093110122C0E2
:1006400086E08093110121C083E08093060110921F
:1006500011010AC08091110190E087309105B8F432
:10066000FC01E35BFF4F9CC712B8089581E082B99B
:10067000089584E082B9089588E082B9089581E000
:1006800082B9089582E082B9089581E082B908951F
:1006900080910C0190E08730910508F0C4C0FC0106
:1006A000EC5AFF4F7DC7189905C0189BFECF81E01B
:1006B00080930C01199B04C01A9B02C01B99B6C001
:1006C00020910001822F90E00197992324F021507E
:1006D0002093000103C084E18093060187E08093AA
:1006E0000C01B0C01A9905C01A9BFECF82E080931E
:1006F0000C01199B04C0189B02C01B9997C0209144
:100700000001822F90E00197992324F0215020933B
:10071000000103C084E18093060187E080930C010F
:1007200091C01B9905C01B9BFECF83E080930C01F9
:10073000199B04C01A9B02C0189978C0209100012F
:10074000822F90E00197992324F0215020930001FB
:1007500003C084E18093060187E080930C0172C09E
:10076000189905C0189BFECF84E080930C01199B5B
:1007700004C01A9B02C01B9959C020910001822F0E
:1007800090E00197992324F021502093000103C0A9
:1007900084E18093060187E080930C0153C019998E
:1007A00005C0199BFECF85E080930C01189B04C007
:1007B0001A9B02C01B993AC020910001822F90E041
:1007C0000197992324F021502093000103C084E174
:1007D0008093060187E080930C0134C0189905C00E
:1007E000189BFECF86E080930C01199B04C01A9BD6
:1007F00002C01B991BC020910001822F90E001973D
:10080000992324F021502093000103C084E18093B8
:10081000060187E080930C0115C01C993DC088E05B
:1008200080930C0140C010920C01089580910C013E
:1008300090E0FC013197E830F10508F03CC0E55A42
:10084000FF4FAEC680E182B9809100017BDD5DCDB6
:10085000089581E082B98091000174DD56CD08953C
:1008600084E082B9809100016DDD4FCD089588E06C
:1008700082B98091000166DD48CD089581E082B99A
:10088000809100015FDD41CD089582E082B98091C1
:10089000000158DD3ACD089581E082B980910001D0
:1008A00051DD33CD089512B8809100014BDD2DDD6F
:1008B00084E080930601089520910D01822F90E03D
:1008C0008A30910598F5FC01ED59FF4F69C680917A
:1008D00006018430A1F5189932C0189BFECF81E043
:1008E00080930D012EC082E080930D012DC083E026
:1008F00080930D012CC084E080930D012BC085E016
:1009000080930D012AC086E080930D0129C087E005
:1009100080930D0128C088E080930D0127C089E0F5
:1009200080930D0126C010920D0109C0822F90E026
:100930008A30910518F5FC01E359FF4F31C612B812
:10094000089582E082B9089584E082B9089581E033
:1009500082B9089588E082B9089582E082B9089545
:1009600084E082B9089581E082B9089582E082B975
:10097000089588E082B985E080930601089580910A
:10098000130190E08B30910508F0B1C0FC01E958EB
:10099000FF4F06C680910601853009F0D5C012B818
:1009A000199905C0199BFECF81E080931301189B14
:1009B00004C01A9B02C01B999AC08AE0809313015D
:1009C000A1C019999FC0199BFECF81E080931301AC
:1009D0009CC01A9905C01A9BFECF82E08093130138
:1009E000199B04C0189B02C01B9981C08AE08093A8
:1009F000130188C0189905C0189BFECF83E080932F
:100A00001301199B04C01A9B02C01B9970C08AE095
:100A10008093130177C01B9905C01B9BFECF84E018
:100A200080931301199B04C01A9B02C018995FC0E0
:100A30008AE08093130166C0199905C0199BFECF07
:100A400085E080931301189B04C01A9B02C01B9978
:100A50004EC08AE08093130155C01A9905C01A9BB5
:100A6000FECF86E080931301199B04C0189B02C03F
:100A70001B993DC08AE08093130144C0189905C0BA
:100A8000189BFECF87E080931301199B04C01A9B2B
:100A900002C01B992CC08AE08093130133C01999BE
:100AA00005C0199BFECF88E080931301189B04C0FA
:100AB0001A9B02C01B991BC08AE08093130122C0BD
:100AC0001B9905C01B9BFECF89E080931301199BE6
:100AD00004C01A9B02C018990AC08AE080931301CF
:100AE00011C01C992AC08BE08093130129C080910A
:100AF000130190E0FC013197EB30F10528F5EE573A
:100B0000FF4F4EC580E182B9089582E082B9089511
:100B100084E082B9089581E082B9089588E082B9BD
:100B2000089582E082B9089584E082B9089581E051
:100B300082B9089582E082B9089588E082B9089563
:100B400012B886E080930601089520910E01822F4D
:100B500090E08D30910508F040C0FC01E357FF4F55
:100B60001FC580910601863009F040C018993EC02B
:100B7000189BFECF81E080930E013AC082E0809303
:100B80000E0139C083E080930E0138C084E0809369
:100B90000E0137C085E080930E0136C086E0809359
:100BA0000E0135C087E080930E0134C088E0809349
:100BB0000E0133C089E080930E0132C08AE0809339
:100BC0000E0131C08BE080930E0130C08CE0809329
:100BD0000E012FC010920E0109C0822F90E08D30BF
:100BE000910560F5FC01E656FF4FDAC412B808958E
:100BF00081E082B9089588E082B9089582E082B9DF
:100C0000089581E082B9089582E082B9089588E06C
:100C100082B9089582E082B9089581E082B9089589
:100C200088E082B9089581E082B9089582E082B9AE
:100C3000089581E082B987E080930601089580914C
:100C4000100190E08E30910508F0E4C0FC01E955F8
:100C5000FF4FA6C480910601873009F011C112B878
:100C6000189905C0189BFECF81E080931001199B55
:100C700004C01A9B02C01B99CDC08DE08093100167
:100C8000D4C01B9905C01B9BFECF82E0809310014E
:100C9000199B04C01A9B02C01899BCC08DE08093B8
:100CA0001001C3C0199905C0199BFECF83E0809342
:100CB0001001189B04C01A9B02C01B99ABC08DE0A9
:100CC00080931001B2C0189905C0189BFECF84E034
:100CD00080931001199B04C01A9B02C01B999AC0F3
:100CE0008DE080931001A1C0199905C0199BFECF1A
:100CF00085E080931001189B04C01A9B02C01B99C9
:100D000089C08DE08093100190C01B9905C01B9B8A
:100D1000FECF86E080931001199B04C01A9B02C08D
:100D2000189978C08DE0809310017FC0199905C093
:100D3000199BFECF87E080931001189B04C01A9B7B
:100D400002C01B9967C08DE0809310016EC0189996
:100D500005C0189BFECF88E080931001199B04C04A
:100D60001A9B02C01B9956C08DE0809310015DC094
:100D70001B9905C01B9BFECF89E080931001199B36
:100D800004C01A9B02C0189945C08DE080931001E1
:100D90004CC0189905C0189BFECF8AE080931001C3
:100DA000199B04C01A9B02C01B9934C08DE080932C
:100DB00010013BC0199905C0199BFECF8BE08093B1
:100DC0001001189B04C01A9B02C01B9923C08DE020
:100DD000809310012AC0189905C0189BFECF8CE0A3
:100DE00080931001199B04C01A9B02C01B9912C06A
:100DF0008DE08093100119C01C993BC08EE0809358
:100E000010013AC0189911C0189BFECF81E0809361
:100E100010010EC08091100190E0FC013197EE307E
:100E2000F10570F5EB54FF4FBBC380E182B9089523
:100E300081E082B9089588E082B9089582E082B99C
:100E4000089581E082B9089582E082B9089588E02A
:100E500082B9089582E082B9089581E082B9089547
:100E600088E082B9089581E082B9089582E082B96C
:100E7000089581E082B9089512B888E08093060150
:100E8000089520911401822F90E08031910508F09F
:100E90004CC0FC01ED53FF4F83C3809106018830A5
:100EA00009F04CC018994AC0189BFECF81E080938E
:100EB000140146C082E08093140145C083E0809312
:100EC000140144C084E08093140143C085E0809302
:100ED000140142C086E08093140141C087E08093F2
:100EE000140140C088E0809314013FC089E08093E2
:100EF00014013EC08AE0809314013DC08BE08093D2
:100F000014013CC08CE0809314013BC08DE08093C1
:100F100014013AC08EE08093140139C08FE08093B1
:100F2000140138C01092140109C0822F90E0803162
:100F30009105A8F5FC01ED52FF4F32C312B8089598
:100F400088E082B9089584E082B9089582E082B988
:100F5000089581E082B9089582E082B9089581E020
:100F600082B9089584E082B9089588E082B908952D
:100F700082E082B9089581E082B9089582E082B961
:100F8000089581E082B9089584E082B9089588E0E7
:100F900082B9089581E082B989E0809306010895BD
:100FA0008091150190E08131910508F017C1FC0195
:100FB000ED51FF4FF5C280910601893009F04AC119
:100FC00012B81B9905C01B9BFECF81E080931501D1
:100FD000199B04C01A9B02C0189900C180E180933C
:100FE000150107C11A9905C01A9BFECF82E08093B4
:100FF0001501199B04C0189B02C01B99EFC080E12A
:1010000080931501F6C0199905C0199BFECF83E0A6
:1010100080931501189B04C01A9B02C01B99DEC067
:1010200080E180931501E5C0189905C0189BFECF9B
:1010300084E080931501199B04C01A9B02C01B9980
:10104000CDC080E180931501D4C0199905C0199BCA
:10105000FECF85E080931501189B04C01A9B02C047
:101060001B99BCC080E180931501C3C0189905C0CD
:10107000189BFECF86E080931501199B04C01A9B34
:1010800002C01B99ABC080E180931501B2C01A99D0
:1010900005C01A9BFECF87E080931501199B04C001
:1010A000189B02C01B999AC080E180931501A1C0D2
:1010B0001B9905C01B9BFECF88E080931501199BEF
:1010C00004C01A9B02C0189989C080E18093150161
:1010D00090C0199905C0199BFECF89E08093150136
:1010E000189B04C01A9B02C01B9978C080E18093B2
:1010F00015017FC0189905C0189BFECF8AE0809328
:101100001501199B04C01A9B02C01B9967C080E19E
:10111000809315016EC0199905C0199BFECF8BE015
:1011200080931501189B04C01A9B02C01B9956C0DE
:1011300080E1809315015DC0189905C0189BFECF12
:101140008CE080931501199B04C01A9B02C01B9967
:1011500045C080E1809315014CC01A9905C01A9BC7
:10116000FECF8DE080931501199B04C0189B02C02F
:101170001B9934C080E1809315013BC01B9905C0C9
:101180001B9BFECF8EE080931501199B04C01A9B18
:1011900002C0189923C080E1809315012AC01899D4
:1011A00005C0189BFECF8FE080931501199B04C0EA
:1011B0001A9B02C01B9912C080E18093150119C0CF
:1011C0001C9944C081E18093150143C01B9911C053
:1011D0001B9BFECF81E0809315010EC0809115010D
:1011E00090E0FC013197E131F105A0F5EC50FF4FA3
:1011F000D7C180E182B9089588E082B9089584E07A
:1012000082B9089582E082B9089581E082B9089593
:1012100082E082B9089581E082B9089584E082B9BC
:10122000089588E082B9089582E082B9089581E046
:1012300082B9089582E082B9089581E082B9089563
:1012400084E082B9089588E082B9089581E082B986
:10125000089512B80895CF92DF92EF92FF928FEF28
:1012600081B912B814B885B98AB91BB88091060142
:1012700081118FC10F2EF4EFCF2EDD24D394E12CFA
:10128000F12CF02DC0920101D0920201E0920301F5
:10129000F0920401C0920701D0920801E092090186
:1012A000F0920A010E94250177D880910B018823D2
:1012B000E1F310920B0180910601882319F381302C
:1012C00021F50F2EF8ECCF2ED12CE12CF12CF02DA6
:1012D000C0920101D0920201E0920301F092040158
:1012E000C0920701D0920801E0920901F0920A0130
:1012F0000E9425019CD880910B018823E1F3109274
:101300000B0180910601813019F380910601823032
:1013100029F50F2EF4EFCF2EDD24D394E12CF12C00
:10132000F02DC0920101D0920201E0920301F092EF
:101330000401C0920701D0920801E0920901F092E5
:101340000A010E94250152D980910B018823E1F303
:1013500010920B0180910601823019F380910601F1
:10136000833021F50F2EF8ECCF2ED12CE12CF12C6F
:10137000F02DC0920101D0920201E0920301F0929F
:101380000401C0920701D0920801E0920901F09295
:101390000A010E9425017CD980910B018823E1F389
:1013A00010920B0180910601833019F380910601A0
:1013B000843029F50F2EF4EFCF2EDD24D394E12CC9
:1013C000F12CF02DC0920101D0920201E0920301B4
:1013D000F0920401C0920701D0920801E092090145
:1013E000F0920A010E94250167DA80910B0188239F
:1013F000E1F310920B0180910601843019F3809182
:101400000601853021F50F2EF8ECCF2ED12CE12CE2
:10141000F12CF02DC0920101D0920201E092030163
:10142000F0920401C0920701D0920801E0920901F4
:10143000F0920A010E942501A2DA80910B01882313
:10144000E1F310920B0180910601853019F3809130
:101450000601863029F50F2EF4EFCF2EDD24D3942C
:10146000E12CF12CF02DC0920101D0920201E0920A
:101470000301F0920401C0920701D0920801E092AA
:101480000901F0920A010E9425015FDB80910B01A6
:101490008823E1F310920B0180910601863019F345
:1014A00080910601873021F50F2EF8ECCF2ED12C3C
:1014B000E12CF12CF02DC0920101D0920201E092BA
:1014C0000301F0920401C0920701D0920801E0925A
:1014D0000901F0920A010E942501B1DB80910B0104
:1014E0008823E1F310920B0180910601873019F3F4
:1014F00080910601883029F50F2EF4EFCF2EDD24E0
:10150000D394E12CF12CF02DC0920101D092020174
:10151000E0920301F0920401C0920701D092080109
:10152000E0920901F0920A010E942501AADC809153
:101530000B018823E1F310920B01809106018830A2
:1015400019F380910601893021F50F2EF8ECCF2E8A
:10155000D12CE12CF12CF02DC0920101D09202018E
:10156000E0920301F0920401C0920701D0920801B9
:10157000E0920901F0920A010E94250111DD80919B
:101580000B018823E1F310920B0180910601893051
:1015900019F380E090E0FF90EF90DF90CF900895F6
:1015A000EE0FFF1F0590F491E02D0994F894FFCF02
:0615B0000901000000002B
:00000001FF
