:1000000062C000007DC000007BC0000079C000001D
:1000100077C0000075C0000073C0000071C0000010
:100020006FC000006DC000006BC0000069C0000020
:1000300067C000008AC0000063C0000061C000000B
:100040005FC000005DC000005BC0000059C0000040
:1000500057C0000055C0000053C0000051C0000050
:100060004FC000004DC000004BC0000049C0000060
:1000700047C0000045C0000043C0000041C0000070
:100080003FC000003DC000003BC00000BD01CD01ED
:10009000D101D501D901DD01E101F101F301F60141
:1000A000F901FC01FF0102021002210232024302A7
:1000B0005402650276028D0295029D02A502AD02F0
:1000C000B5028A02BD0211241FBECFEFD0E4DEBF0D
:1000D000CDBF11E0A0E0B1E0E6EEF6E000E00BBF3E
:1000E00002C007900D92A430B107D9F721E0A4E037
:1000F000B1E001C01D92A131B207E1F740D2F1C2D7
:100100007FCF8BE0809381008DE790E09093890012
:100110008093880082E080936F0010928500109297
:1001200084008091000190910101A0910201B091A1
:1001300003018093060190930701A0930801B093F7
:1001400009018FB780688FBF08951F920F920FB675
:100150000F9211248F939F93AF93BF9380910601C9
:1001600090910701A0910801B09109010197A1099F
:10017000B1098093060190930701A0930801B09301
:100180000901892B8A2B8B2B99F481E080930A013A
:100190008091000190910101A0910201B0910301B1
:1001A0008093060190930701A0930801B093090181
:1001B000BF91AF919F918F910F900FBE0F901F90A5
:1001C000189580910E018230C9F028F4882341F0FF
:1001D000813081F020C08330A9F08430B9F01BC099
:1001E00080910401811126C01C9924C081E0809374
:1001F0000E0122C082E080930E0121C083E0809333
:100200000E0120C084E080930E011FC010920E01E9
:1002100081E08093040180910E01823081F028F406
:10022000882341F0813041F00895833059F08430C3
:1002300071F40BC012B8089581E082B9089582E08C
:1002400082B9089584E082B9089588E082B908955A
:10025000809110018230A9F128F4882359F081306F
:10026000F9F05DC0843009F44EC0E0F1853009F446
:1002700050C055C080910401813009F073C01899B5
:1002800005C0189BFECF81E080931001199B04C02C
:100290001A9B02C01B9943C085E0809310014FC098
:1002A000199905C0199BFECF82E080931001189B1D
:1002B00004C01A9B02C01B9932C085E080931001D4
:1002C0003EC01A9905C01A9BFECF83E080931001AF
:1002D000199B04C0189B02C01B9921C085E0809324
:1002E00010012DC01B9905C01B9BFECF84E080939D
:1002F0001001199B04C01A9B02C0189910C085E018
:10030000809310011CC01C9926C086E080931001C8
:1003100025C0189914C081E08093100113C080910A
:1003200010018330A9F028F4813061F0823069F047
:100330000895853021F078F0863081F0089580E1CD
:1003400082B9089581E082B9089582E082B9089562
:1003500084E082B9089588E082B9089512B882E0F5
:1003600080930401089580910D0190E087309105FC
:1003700070F5FC01EA5BFF4FAEC180910401823051
:1003800081F5189903C081E080930D01189B1FC06F
:1003900010920D011899FCCF24C082E080930D01CA
:1003A00025C083E080930D0124C084E080930D017B
:1003B00023C085E080930D0122C086E080930D016B
:1003C00021C083E08093040110920D010AC0809146
:1003D0000D0190E087309105B8F4FC01E35BFF4F1D
:1003E0007AC112B8089581E082B9089584E082B993
:1003F000089588E082B9089581E082B9089582E085
:1004000082B9089581E082B9089580910B0190E04E
:100410008730910508F070C0FC01EC5AFF4F5BC1BA
:10042000189905C0189BFECF81E080930B01199BA2
:1004300004C01A9B02C01B9962C087E080930B0125
:1004400069C01A9905C01A9BFECF82E080930B0108
:10045000199B04C0189B02C01B9951C085E0809372
:100460000B017BC01B9905C01B9BFECF83E08093D3
:100470000B01199B04C01A9B02C0189940C087E069
:1004800080930B0147C0189905C0189BFECF84E0EC
:1004900080930B01199B04C01A9B02C01B992FC0AB
:1004A00087E080930B0136C0199905C0199BFECFD8
:1004B00085E080930B01189B04C01A9B02C01B9916
:1004C0001EC087E080930B0125C0189905C0189BBA
:1004D000FECF86E080930B01199B04C01A9B02C0DB
:1004E0001B990DC087E080930B0114C01C993DC07F
:1004F00088E080930B0141C010920B010895809118
:100500000B0190E0FC013197E830F105B8F5E55AB0
:10051000FF4FE1C080E182B9089581E082B9809106
:1005200005018F5F80930501089584E082B9809171
:1005300005018F5F80930501089588E082B980915D
:1005400005018F5F80930501089581E082B9809154
:1005500005018F5F80930501089582E082B9809143
:1005600005018F5F80930501089581E082B9809134
:1005700005018F5F80930501089512B80895CF9209
:10058000DF92EF92FF928FEF81B912B814B885B95C
:1005900080910401811198C00F2EF8EECF2EF3E068
:1005A000DF2EE12CF12CF02DC0920001D092010140
:1005B000E0920201F0920301C0920601D09207017D
:1005C000E0920801F09209019CDDFBDD80910A01B7
:1005D0008823E1F310920A0180910401882321F31A
:1005E000813019F50F2EF8ECCF2ED12CE12CF12C07
:1005F000F02DC0920001D0920101E0920201F09230
:100600000301C0920601D0920701E0920801F09226
:10061000090177DD1DDE80910A018823E1F3109244
:100620000A0180910401813021F38091040182301C
:1006300021F50F2EF8EECF2EF3E0DF2EE12CF12C7A
:10064000F02DC0920001D0920101E0920201F092DF
:100650000301C0920601D0920701E0920801F092D6
:1006600009014FDD80DE80910A018823E1F31092B9
:100670000A0180910401823021F3809104018330CA
:1006800019F50F2EF8ECCF2ED12CE12CF12CF02DFA
:10069000C0920001D0920101E0920201F0920301A8
:1006A000C0920601D0920701E0920801F092090180
:1006B00028DDABDE80910A018823E1F310920A0164
:1006C00080910401833021F380E090E0FF90EF906F
:1006D000DF90CF900895EE0FFF1F0590F491E02D6D
:0606E0000994F894FFCF1D
:0406E600010000000F
:00000001FF
