S0150000326E645F66696E616C5F70726A2E73726563F7
S1130000C2C00000DDC00000DBC00000D9C0000099
S1130010D7C00000D5C00000D3C00000D1C000008C
S1130020CFC00000CDC00000CBC00000C9C000009C
S1130030C7C00000EAC00000C3C00000C1C0000087
S1130040BFC00000BDC00000BBC00000B9C00000BC
S1130050B7C00000B5C00000B3C00000B1C00000CC
S1130060AFC00000ADC00000ABC00000A9C00000DC
S1130070A7C00000A5C00000A3C00000A1C00000EC
S11300809FC000009DC000009BC000001F022F0203
S1130090330237023B023F02430253025502580225
S11300A05B025E0261026402720283029402A50290
S11300B0B602C702D802EF02F202F502F802FB020E
S11300C0FE02EC02010311031D032103250329038E
S11300D02D033103350339033D0349034B034E0319
S11300E05103540357035A035D036003630374030A
S11300F09303A403B503C603D703E803F9030A046F
S11301001B048B032F043204350438043B043E04DF
S11301104104440447042C044A045B0468046C044A
S11301207004740478047C048004840488048C04BB
S113013090049404A004A204A504A804AB04AE048F
S1130140B104B404B704BA04BD04C004C304D404A1
S1130150EB04FC040D051E052F0540055105620541
S1130160730584059505A605AC05C205C505C80536
S1130170CB05CE05D105D405D705DA05DD05E005A7
S1130180E305BF05E60511241FBECFEFD0E4DEBFB3
S1130190CDBF11E0A0E0B1E0E0E8FEE000E00BBF7D
S11301A002C007900D92A430B107D9F721E0A4E072
S11301B0B1E001C01D92A431B207E1F70CD55EC6CF
S11301C01FCF8BE0809381008DE790E090938900AE
S11301D08093880082E080936F00109285001092D3
S11301E084008091000190910101A0910201B091DD
S11301F003018093050190930601A0930701B09336
S113020008018FB780688FBF08951F920F920FB6B1
S11302100F9211248F939F93AF93BF938091050105
S113022090910601A0910701B09108010197A109DD
S1130230B1098093050190930601A0930701B0933F
S11302400801892B8A2B8B2B99F481E08093090177
S11302508091000190910101A0910201B0910301EC
S11302608093050190930601A0930701B0930801C0
S1130270BF91AF919F918F910F900FBE0F901F90E0
S11302801895809110018230C9F028F4882341F038
S1130290813081F020C08330A9F08430B9F01BC0D4
S11302A080910401811126C01C9924C081E08093AF
S11302B0100122C082E08093100121C083E080936A
S11302C0100120C084E0809310011FC0109210011F
S11302D081E08093040180911001823081F028F440
S11302E0882341F0813041F00895833059F08430FF
S11302F071F40BC012B8089581E082B9089582E0C8
S113030082B9089584E082B9089588E082B9089595
S1130310809113018230A9F128F4882359F08130A7
S1130320F9F05FC0843009F44EC0E0F1853009F47F
S113033050C057C080910401813009F075C01899EC
S113034005C0189BFECF81E080931301199B04C064
S11303501A9B02C01B9945C085E08093130151C0CC
S1130360199905C0199BFECF82E080931301189B55
S113037004C01A9B02C01B9934C085E0809313010A
S113038040C01A9905C01A9BFECF83E080931301E5
S1130390199B04C0189B02C01B9923C085E080935D
S11303A013012FC01B9905C01B9BFECF84E08093D3
S11303B01301199B04C01A9B02C0189912C085E04E
S11303C0809313011EC01C9928C086E080931301FA
S11303D027C0189916C0189BFECF81E080931301A3
S11303E013C0809113018330A9F028F4813061F0A7
S11303F0823069F00895853021F078F0863081F0FC
S1130400089580E182B9089581E082B9089582E077
S113041082B9089584E082B9089588E082B9089584
S113042012B882E080930401089580910F0190E056
S11304308730910570F5FC01EA5BFF4F19C5809187
S11304400401823081F5189903C081E080930F0183
S1130450189B1FC010920F011899FCCF24C082E092
S113046080930F0125C083E080930F0124C084E0B2
S113047080930F0123C085E080930F0122C086E0A2
S113048080930F0121C083E08093040110920F0137
S11304900AC080910F0190E087309105B8F4FC0107
S11304A0E35BFF4FE5C412B8089581E082B9089573
S11304B084E082B9089588E082B9089581E082B920
S11304C0089582E082B9089581E082B90895809107
S11304D00A0190E08730910508F070C0FC01EC5AE5
S11304E0FF4FC6C4189905C0189BFECF81E08093C6
S11304F00A01199B04C01A9B02C01B9962C087E0C1
S113050080930A0169C01A9905C01A9BFECF82E044
S113051080930A01199B04C0189B02C01B9951C007
S113052087E080930A0158C01B9905C01B9BFECF2E
S113053083E080930A01199B04C01A9B02C0189996
S113054040C087E080930A0147C0189905C0189BF2
S1130550FECF84E080930A01199B04C01A9B02C059
S11305601B992FC087E080930A0136C0199905C0F2
S1130570199BFECF85E080930A01189B04C01A9B47
S113058002C01B991EC087E080930A0125C01899F8
S113059005C0189BFECF86E080930A01199B04C016
S11305A01A9B02C01B990DC087E080930A0114C0F6
S11305B01C9924C088E080930A0123C010920A0188
S11305C0089580910A0190E0FC013197E830F1052B
S11305D0E0F4E55AFF4F4CC480E182B9089581E00C
S11305E082B9089584E082B9089588E082B90895B3
S11305F081E082B9089582E082B9089581E082B9E8
S1130600089512B884E080930401089520910B01A9
S1130610822F90E08A30910598F5FC01ED59FF4F47
S113062027C4809104018430A1F5189932C0189B25
S1130630FECF81E080930B012EC082E080930B01FA
S11306402DC083E080930B012CC084E080930B01C8
S11306502BC085E080930B012AC086E080930B01B8
S113066029C087E080930B0128C088E080930B01A8
S113067027C089E080930B0126C010920B0109C0AA
S1130680822F90E08A30910518F5FC01E359FF4F61
S1130690EFC312B8089582E082B9089584E082B964
S11306A0089581E082B9089588E082B9089582E0CE
S11306B082B9089584E082B9089581E082B90895E9
S11306C082E082B9089588E082B985E080930401CC
S11306D008958091110190E08B30910508F0B1C02C
S11306E0FC01E958FF4FC4C380910401853009F02F
S11306F0D5C012B8199905C0199BFECF81E080932B
S11307001101189B04C01A9B02C01B999AC08AE06D
S113071080931101A1C019999FC0199BFECF81E05C
S1130720809311019CC01A9905C01A9BFECF82E0E8
S113073080931101199B04C0189B02C01B9981C0AE
S11307408AE08093110188C0189905C0189BFECFD8
S113075083E080931101199B04C01A9B02C01B996A
S113076070C08AE08093110177C01B9905C01B9B60
S1130770FECF84E080931101199B04C01A9B02C030
S113078018995FC08AE08093110166C0199905C069
S1130790199BFECF85E080931101189B04C01A9B1E
S11307A002C01B994EC08AE08093110155C01A996A
S11307B005C01A9BFECF86E080931101199B04C0EB
S11307C0189B02C01B993DC08AE08093110144C06C
S11307D0189905C0189BFECF87E080931101199BDF
S11307E004C01A9B02C01B992CC08AE0809311019B
S11307F033C0199905C0199BFECF88E0809311017D
S1130800189B04C01A9B02C01B991BC08AE08093EA
S1130810110122C01B9905C01B9BFECF89E0809368
S11308201101199B04C01A9B02C018990AC08AE0DE
S11308308093110111C01C992AC08BE0809311018F
S113084029C08091110190E0FC013197EB30F10552
S113085028F5EE57FF4F0CC380E182B9089582E07A
S113086082B9089584E082B9089581E082B9089537
S113087088E082B9089582E082B9089584E082B95B
S1130880089581E082B9089582E082B9089588E0EC
S113089082B9089512B886E08093040108952091E6
S11308A00C01822F90E08D30910508F040C0FC01CE
S11308B0E357FF4FDDC280910401863009F040C048
S11308C018993EC0189BFECF81E080930C013AC07A
S11308D082E080930C0139C083E080930C0138C01E
S11308E084E080930C0137C085E080930C0136C00E
S11308F086E080930C0135C087E080930C0134C0FE
S113090088E080930C0133C089E080930C0132C0ED
S11309108AE080930C0131C08BE080930C0130C0DD
S11309208CE080930C012FC010920C0109C0822F1F
S113093090E08D30910560F5FC01E656FF4F98C2BA
S113094012B8089581E082B9089588E082B90895C3
S113095082E082B9089581E082B9089582E082B983
S1130960089588E082B9089582E082B9089581E00B
S113097082B9089588E082B9089581E082B9089522
S113098082E082B9089581E082B987E0809304010E
S1130990089580910E0190E08E30910508F0E4C036
S11309A0FC01E955FF4F64C280910401873009F0CE
S11309B011C112B8189905C0189BFECF81E080932D
S11309C00E01199B04C01A9B02C01B99CDC08DE077
S11309D080930E01D4C01B9905C01B9BFECF82E0FF
S11309E080930E01199B04C01A9B02C01899BCC0C5
S11309F08DE080930E01C3C0199905C0199BFECFE9
S1130A0083E080930E01189B04C01A9B02C01B99BB
S1130A10ABC08DE080930E01B2C0189905C0189B3D
S1130A20FECF84E080930E01199B04C01A9B02C080
S1130A301B999AC08DE080930E01A1C0199905C03D
S1130A40199BFECF85E080930E01189B04C01A9B6E
S1130A5002C01B9989C08DE080930E0190C01B9940
S1130A6005C01B9BFECF86E080930E01199B04C03A
S1130A701A9B02C0189978C08DE080930E017FC044
S1130A80199905C0199BFECF87E080930E01189B2E
S1130A9004C01A9B02C01B9967C08DE080930E01AD
S1130AA06EC0189905C0189BFECF88E080930E0194
S1130AB0199B04C01A9B02C01B9956C08DE08093F9
S1130AC00E015DC01B9905C01B9BFECF89E080937E
S1130AD00E01199B04C01A9B02C0189945C08DE0F1
S1130AE080930E014CC0189905C0189BFECF8AE074
S1130AF080930E01199B04C01A9B02C01B9934C039
S1130B008DE080930E013BC0199905C0199BFECF5F
S1130B108BE080930E01189B04C01A9B02C01B99A2
S1130B2023C08DE080930E012AC0189905C0189B3C
S1130B30FECF8CE080930E01199B04C01A9B02C067
S1130B401B9912C08DE080930E0119C01C993BC003
S1130B508EE080930E013AC0189911C0189BFECF05
S1130B6081E080930E010EC080910E0190E0FC01A3
S1130B703197EE30F10570F5EB54FF4F79C180E108
S1130B8082B9089581E082B9089588E082B9089510
S1130B9082E082B9089581E082B9089582E082B941
S1130BA0089588E082B9089582E082B9089581E0C9
S1130BB082B9089588E082B9089581E082B90895E0
S1130BC082E082B9089581E082B9089512B887E07D
S1130BD0809304010895CF92DF92EF92FF928FEFFA
S1130BE081B912B814B885B980910401811139C151
S1130BF00F2EFCEBCF2EF2E0DF2EE12CF12CF02DAA
S1130C00C0920001D0920101E0920201F09203012E
S1130C10C0920501D0920601E0920701F09208010A
S1130C20D0DA2FDB809109018823E1F310920901C6
S1130C3080910401882321F3813019F50F2EF8ECFB
S1130C40CF2ED12CE12CF12CF02DC0920001D092AA
S1130C500101E0920201F0920301C0920501D092D9
S1130C600601E0920701F0920801ABDA51DB8091B2
S1130C7009018823E1F31092090180910401813074
S1130C8021F380910401823021F50F2EF8EECF2E4E
S1130C90F3E0DF2EE12CF12CF02DC0920001D09274
S1130CA00101E0920201F0920301C0920501D09289
S1130CB00601E0920701F092080183DAB6DB809125
S1130CC009018823E1F31092090180910401823023
S1130CD021F380910401833021F50F2EF0E9CF2E0A
S1130CE0DD24D394E12CF12CF02DC0920001D0929C
S1130CF00101E0920201F0920301C0920501D09239
S1130D000601E0920701F09208015BDAE0DB8091D2
S1130D1009018823E1F310920901809104018330D1
S1130D2021F380910401843021F50F2EF8EECF2EAB
S1130D30F3E0DF2EE12CF12CF02DC0920001D092D3
S1130D400101E0920201F0920301C0920501D092E8
S1130D500601E0920701F092080133DA57DC809132
S1130D6009018823E1F31092090180910401843080
S1130D7021F380910401853021F50F2EF0E9CF2E67
S1130D80DD24D394E12CF12CF02DC0920001D092FB
S1130D900101E0920201F0920301C0920501D09298
S1130DA00601E0920701F09208010BDA92DC8091CF
S1130DB009018823E1F3109209018091040185302F
S1130DC021F380910401863021F50F2EF8EECF2E09
S1130DD0F3E0DF2EE12CF12CF02DC0920001D09233
S1130DE00101E0920201F0920301C0920501D09248
S1130DF00601E0920701F0920801E3D950DD8091E9
S1130E0009018823E1F310920901809104018630DD
S1130E1021F380910401873021F50F2EF0E9CF2EC4
S1130E20DD24D394E12CF12CF02DC0920001D0925A
S1130E300101E0920201F0920301C0920501D092F7
S1130E400601E0920701F0920801BBD9A2DD80916E
S1130E5009018823E1F3109209018091040187308C
S1130E6021F380E090E0FF90EF90DF90CF90089521
S1130E70EE0FFF1F0590F491E02D0994F894FFCF35
S1070E800100000069
S9030000FC
