S0150000326E645F66696E616C5F70726A2E73726563F7
S11300008CC00000A7C00000A5C00000A3C0000071
S1130010A1C000009FC000009DC000009BC0000064
S113002099C0000097C0000095C0000093C0000074
S113003091C00000B4C000008DC000008BC000005F
S113004089C0000087C0000085C0000083C0000094
S113005081C000007FC000007DC000007BC00000A4
S113006079C0000077C0000075C0000073C00000B4
S113007071C000006FC000006DC000006BC00000C4
S113008069C0000067C0000065C00000E901F90113
S1130090FD010102050209020D021D021F022202D6
S11300A0250228022B022E023C024D025E026F0240
S11300B080029102A202B902BC02BF02C202C502BE
S11300C0C802B602CB02DB02EB02EF02F302F70234
S11300D0FB02FF02030307030B03170319031C03AB
S11300E01F032203250328032B032E03310342039A
S11300F06103720383039403A503B603C703D80300
S1130100E9035903FD0300040304060409040C0471
S11301100F0412041504FA03180411241FBECFEFB0
S1130120D0E4DEBFCDBF11E0A0E0B1E0E4E4FAE04A
S113013000E00BBF02C007900D92A430B107D9F7BD
S113014021E0A4E0B1E001C01D92A231B207E1F7C1
S113015074D376C455CF8BE0809381008DE790E013
S1130160909389008093880082E080936F001092BE
S11301708500109284008091000190910101A0916A
S11301800201B09103018093050190930601A093AD
S11301900701B09308018FB780688FBF08951F923D
S11301A00F920FB60F9211248F939F93AF93BF9327
S11301B08091050190910601A0910701B091080179
S11301C00197A109B1098093050190930601A093B9
S11301D00701B0930801892B8A2B8B2B99F481E0BA
S11301E0809309018091000190910101A091020185
S11301F0B09103018093050190930601A093070138
S1130200B0930801BF91AF919F918F910F900FBE52
S11302100F901F90189580910E018230C9F028F438
S1130220882341F0813081F020C08330A9F08430EC
S1130230B9F01BC080910401811126C01C9924C00F
S113024081E080930E0122C082E080930E0121C0E0
S113025083E080930E0120C084E080930E011FC0D0
S113026010920E0181E08093040180910E0182308E
S113027081F028F4882341F0813041F008958330DF
S113028059F0843071F40BC012B8089581E082B93A
S1130290089582E082B9089584E082B9089588E0DF
S11302A082B90895809111018230A9F128F488233C
S11302B059F08130F9F05FC0843009F44EC0E0F1A8
S11302C0853009F450C057C080910401813009F091
S11302D075C0189905C0189BFECF81E08093110169
S11302E0199B04C01A9B02C01B9945C085E08093EA
S11302F0110151C0199905C0199BFECF82E080936A
S11303001101189B04C01A9B02C01B9934C085E0DC
S11303108093110140C01A9905C01A9BFECF83E057
S113032080931101199B04C0189B02C01B9923C020
S113033085E0809311012FC01B9905C01B9BFECF44
S113034084E080931101199B04C01A9B02C0189980
S113035012C085E0809311011EC01C9928C086E05C
S11303608093110127C0189916C0189BFECF81E015
S11303708093110113C0809111018330A9F028F4F6
S1130380813061F0823069F00895853021F078F091
S1130390863081F0089580E182B9089581E082B9C0
S11303A0089582E082B9089584E082B9089588E0CE
S11303B082B9089512B882E080930401089580916F
S11303C00D0190E08730910570F5FC01EA5BFF4F69
S11303D031C380910401823081F5189903C081E012
S11303E080930D01189B1FC010920D011899FCCF2A
S11303F024C082E080930D0125C083E080930D0129
S113040024C084E080930D0123C085E080930D0116
S113041022C086E080930D0121C083E08093040113
S113042010920D010AC080910D0190E08730910572
S1130430B8F4FC01E35BFF4FFDC212B8089581E0FC
S113044082B9089584E082B9089588E082B9089554
S113045081E082B9089582E082B9089581E082B989
S1130460089580910A0190E08730910508F070C0EA
S1130470FC01EC5AFF4FDEC2189905C0189BFECF51
S113048081E080930A01199B04C01A9B02C01B9946
S113049062C087E080930A0169C01A9905C01A9B5B
S11304A0FECF82E080930A01199B04C0189B02C00E
S11304B01B9951C085E080930A0167C01B9905C050
S11304C01B9BFECF83E080930A01199B04C01A9BF7
S11304D002C0189940C087E080930A0147C0189968
S11304E005C0189BFECF84E080930A01199B04C0C9
S11304F01A9B02C01B992FC087E080930A0136C063
S1130500199905C0199BFECF85E080930A01189BB9
S113051004C01A9B02C01B991EC087E080930A0185
S113052025C0189905C0189BFECF86E080930A0168
S1130530199B04C01A9B02C01B990DC087E08093CD
S11305400A0114C01C9924C088E080930A0123C0C6
S113055010920A01089580910A0190E0FC013197FC
S1130560E830F105E0F4E55AFF4F64C280E182B956
S1130570089581E082B9089584E082B9089588E0FD
S113058082B9089581E082B9089582E082B908951C
S113059081E082B9089512B884E08093040108953B
S11305A020910B01822F90E08A309105B8F5FC016F
S11305B0ED59FF4F3FC2809104018430C1F582B9E7
S11305C0189906C0189BFECF81E080930B0131C0BF
S11305D010920B012CC082E080930B012DC083E0AC
S11305E080930B012CC084E080930B012BC085E029
S11305F080930B012AC086E080930B0129C087E019
S113060080930B0128C088E080930B0127C089E008
S113061080930B0126C010920B0109C0822F90E039
S11306208A30910518F5FC01E359FF4F03C212B853
S1130630089582E082B9089584E082B9089581E042
S113064082B9089588E082B9089582E082B9089554
S113065084E082B9089581E082B9089582E082B984
S1130660089588E082B985E080930401089580911B
S11306700F0190E08B30910508F0B1C0FC01E958FE
S1130680FF4FD8C180910401853009F0D5C012B85C
S1130690199905C0199BFECF81E080930F01189B27
S11306A004C01A9B02C01B999AC08AE080930F0170
S11306B0A1C019999FC0199BFECF81E080930F01BF
S11306C09CC01A9905C01A9BFECF82E080930F014B
S11306D0199B04C0189B02C01B9981C08AE08093B7
S11306E00F0188C0189905C0189BFECF83E0809342
S11306F00F01199B04C01A9B02C01B9970C08AE0A9
S113070080930F0177C01B9905C01B9BFECF84E02B
S113071080930F01199B04C01A9B02C018995FC0F3
S11307208AE080930F0166C0199905C0199BFECF1A
S113073085E080930F01189B04C01A9B02C01B998B
S11307404EC08AE080930F0155C01A9905C01A9BC8
S1130750FECF86E080930F01199B04C0189B02C052
S11307601B993DC08AE080930F0144C0189905C0CD
S1130770189BFECF87E080930F01199B04C01A9B3E
S113078002C01B992CC08AE080930F0133C01999D1
S113079005C0199BFECF88E080930F01189B04C00D
S11307A01A9B02C01B991BC08AE080930F0122C0D0
S11307B01B9905C01B9BFECF89E080930F01199BF9
S11307C004C01A9B02C018990AC08AE080930F01E2
S11307D011C01C992AC08BE080930F0129C080911D
S11307E00F0190E0FC013197EB30F10528F5EE574D
S11307F0FF4F20C180E182B9089582E082B9089553
S113080084E082B9089581E082B9089588E082B9CC
S1130810089582E082B9089584E082B9089581E060
S113082082B9089582E082B9089588E082B9089572
S113083012B886E0809304010895CF92DF92EF927C
S1130840FF928FEF81B912B814B885B98091040171
S11308508111E9C00F2EFCEBCF2EF2E0DF2EE12C4C
S1130860F12CF02DC0920001D0920101E09202011E
S1130870F0920301C0920501D0920601E0920701B3
S1130880F092080168DCC7DC809109018823E1F358
S11308901092090180910401882321F3813019F514
S11308A00F2EF8ECCF2ED12CE12CF12CF02DC09290
S11308B00001D0920101E0920201F0920301C09282
S11308C00501D0920601E0920701F092080143DC91
S11308D0E9DC809109018823E1F3109209018091F8
S11308E00401813021F380910401823021F50F2E1F
S11308F0F8EECF2EF3E0DF2EE12CF12CF02DC09298
S11309000001D0920101E0920201F0920301C09231
S11309100501D0920601E0920701F09208011BDC68
S11309204EDD809109018823E1F310920901809141
S11309300401823021F380910401833021F50F2ECC
S1130940F0E9CF2EDD24D394E12CF12CF02DC092CC
S11309500001D0920101E0920201F0920301C092E1
S11309600501D0920601E0920701F0920801F3DB41
S113097078DD809109018823E1F3109209018091C7
S11309800401833021F380910401843021F50F2E7A
S1130990F8EECF2EF3E0DF2EE12CF12CF02DC092F7
S11309A00001D0920101E0920201F0920301C09291
S11309B00501D0920601E0920701F0920801CBDB19
S11309C0EFDD809109018823E1F310920901809100
S11309D00401843021F380910401853021F50F2E28
S11309E0F0E9CF2EDD24D394E12CF12CF02DC0922C
S11309F00001D0920101E0920201F0920301C09241
S1130A000501D0920601E0920701F0920801A3DBF0
S1130A102EDE809109018823E1F31092090180916F
S1130A200401853021F380E090E0FF90EF90DF90A7
S1130A30CF900895EE0FFF1F0590F491E02D0994D7
S1070A40F894FFCF54
S1070A4401000000A9
S9030000FC
