S0150000326E645F66696E616C5F70726A2E73726563F7
S113000004C1000020C100001EC100001CC100008A
S11300101AC1000018C1000016C1000014C100007C
S113002012C1000010C100000EC100000CC100008C
S11300300AC100002DC1000006C1000004C1000077
S113004002C1000000C10000FEC00000FCC00000AE
S1130050FAC00000F8C00000F6C00000F4C00000C0
S1130060F2C00000F0C00000EEC00000ECC00000D0
S1130070EAC00000E8C00000E6C00000E4C00000E0
S1130080E2C00000E0C00000DEC0000062027202B4
S113009076027A027E0282028602960298029B020D
S11300A09E02A102A402A702B502C602D702E80278
S11300B0F9020A031B033203350338033B033E03EF
S11300C041032F03440354036003640368036C0374
S11300D07003740378037C0380038C038E03910301
S11300E0940397039A039D03A003A303A603B703F2
S11300F0D603E703F80309041A042B043C044D0453
S11301005E04CE037204750478047B047E048104C7
S1130110840487048A046F048D049E04AB04AF0432
S1130120B304B704BB04BF04C304C704CB04CF04A3
S1130130D304D704E304E504E804EB04EE04F10477
S1130140F404F704FA04FD04000503050605170585
S11301502E053F0550056105720583059405A50527
S1130160B605C705D805E905EF05050608060B061B
S11301700E061106140617061A061D062006230687
S11301802606020629063A0647064B064F0653067C
S113019057065B065F06630667066B066F06730603
S11301A077067B067F068B068D06900693069606D9
S11301B099069C069F06A206A506A806AB06AE06EF
S11301C0B106B406B706C806DF06F0060107120733
S11301D023073407450756076707780789079A07EF
S11301E0AB07BC07CD07D307E907EC07EF07F20716
S11301F0F507F807FB07FE070108040807080A08C3
S11302000D0810081308E607160811241FBECFEFC7
S1130210D0E4DEBFCDBF11E0A0E0B1E0EAE7F3E156
S113022000E00BBF02C007900D92A430B107D9F7CC
S113023021E0A4E0B1E001C01D92A631B207E1F7CC
S1130240F7D60C94BB09DCCE8BE0809381008DE75C
S113025090E0909389008093880082E080936F00FF
S11302601092850010928400809100019091010108
S1130270A0910201B09103018093050190930601BE
S1130280A0930701B09308018FB780688FBF0895CA
S11302901F920F920FB60F9211248F939F93AF93D7
S11302A0BF938091050190910601A0910701B0913F
S11302B008010197A109B1098093050190930601F2
S11302C0A0930701B0930801892B8A2B8B2B99F4F7
S11302D081E0809309018091000190910101A09136
S11302E00201B09103018093050190930601A0934C
S11302F00701B0930801BF91AF919F918F910F9027
S11303000FBE0F901F901895809110018230C9F094
S113031028F4882341F0813081F020C08330A9F093
S11303208430B9F01BC080910401811126C01C994E
S113033024C081E08093100122C082E080931001E8
S113034021C083E08093100120C084E080931001D9
S11303501FC01092100181E080930401809110016C
S1130360823081F028F4882341F0813041F00895EF
S1130370833059F0843071F40BC012B8089581E0D1
S113038082B9089582E082B9089584E082B908951B
S113039088E082B90895809115018230A9F128F48A
S11303A0882359F08130F9F05FC0843009F44EC0DD
S11303B0E0F1853009F450C057C0809104018130C8
S11303C009F075C0189905C0189BFECF81E0809391
S11303D01501199B04C01A9B02C01B9945C085E0F6
S11303E08093150151C0199905C0199BFECF82E075
S11303F080931501189B04C01A9B02C01B9934C03A
S113040085E08093150140C01A9905C01A9BFECF60
S113041083E080931501199B04C0189B02C01B99AB
S113042023C085E0809315012FC01B9905C01B9B39
S1130430FECF84E080931501199B04C01A9B02C06F
S1130440189912C085E0809315011EC01C9928C01C
S113045086E08093150127C0189916C0189BFECF1B
S113046081E08093150113C0809115018330A9F0B8
S113047028F4813061F0823069F00895853021F0EC
S113048078F0863081F0089580E182B9089581E0A2
S113049082B9089582E082B9089584E082B908950A
S11304A088E082B9089512B882E080930401089527
S11304B080910F0190E08730910570F5FC01EA5BB3
S11304C0FF4F53C780910401823081F5189903C00E
S11304D081E080930F01189B1FC010920F0118999F
S11304E0FCCF24C082E080930F0125C083E0809379
S11304F00F0124C084E080930F0123C085E0809322
S11305000F0122C086E080930F0121C083E0809315
S1130510040110920F010AC080910F0190E087300E
S11305209105B8F4FC01E35BFF4F1FC712B80895AF
S113053081E082B9089584E082B9089588E082B99F
S1130540089581E082B9089582E082B9089581E036
S113055082B9089580910A0190E08730910508F0EE
S113056070C0FC01EC5AFF4F00C7189905C0189BD6
S1130570FECF81E080930A01199B04C01A9B02C03C
S11305801B9962C087E080930A0169C01A9905C06B
S11305901A9BFECF82E080930A01199B04C0189B2A
S11305A002C01B9951C087E080930A0158C01B996F
S11305B005C01B9BFECF83E080930A01199B04C0F6
S11305C01A9B02C0189940C087E080930A0147C073
S11305D0189905C0189BFECF84E080930A01199BEB
S11305E004C01A9B02C01B992FC087E080930A01A4
S11305F036C0199905C0199BFECF85E080930A0186
S1130600189B04C01A9B02C01B991EC087E08093EC
S11306100A0125C0189905C0189BFECF86E0809377
S11306200A01199B04C01A9B02C01B990DC087E0E4
S113063080930A0114C01C9924C088E080930A01A5
S113064023C010920A01089580910A0190E0FC01F0
S11306503197E830F105E0F4E55AFF4F86C680E1B2
S113066082B9089581E082B9089584E082B9089539
S113067088E082B9089581E082B9089582E082B960
S1130680089581E082B9089512B884E0809304014A
S1130690089520910B01822F90E08A30910598F5FE
S11306A0FC01ED59FF4F61C6809104018430A1F52E
S11306B0189932C0189BFECF81E080930B012EC0A5
S11306C082E080930B012DC083E080930B012CC04A
S11306D084E080930B012BC085E080930B012AC03A
S11306E086E080930B0129C087E080930B0128C02A
S11306F088E080930B0127C089E080930B0126C01A
S113070010920B0109C0822F90E08A30910518F5F0
S1130710FC01E359FF4F29C612B8089582E082B95B
S1130720089584E082B9089581E082B9089588E04B
S113073082B9089582E082B9089584E082B9089567
S113074081E082B9089582E082B9089588E082B98F
S113075085E08093040108958091110190E08B302D
S1130760910508F0B1C0FC01E958FF4FFEC5809126
S11307700401853009F0D5C012B8199905C0199B38
S1130780FECF81E080931101189B04C01A9B02C024
S11307901B999AC08AE080931101A1C019999FC046
S11307A0199BFECF81E0809311019CC01A9905C06A
S11307B01A9BFECF82E080931101199B04C0189B01
S11307C002C01B9981C08AE08093110188C01899E6
S11307D005C0189BFECF83E080931101199B04C0D0
S11307E01A9B02C01B9970C08AE08093110177C0E4
S11307F01B9905C01B9BFECF84E080931101199BBC
S113080004C01A9B02C018995FC08AE0809311014A
S113081066C0199905C0199BFECF85E0809311012C
S1130820189B04C01A9B02C01B994EC08AE0809397
S1130830110155C01A9905C01A9BFECF86E080931A
S11308401101199B04C0189B02C01B993DC08AE08A
S11308508093110144C0189905C0189BFECF87E00E
S113086080931101199B04C01A9B02C01B992CC0D0
S11308708AE08093110133C0199905C0199BFECFFA
S113088088E080931101189B04C01A9B02C01B9935
S11308901BC08AE08093110122C01B9905C01B9BD9
S11308A0FECF89E080931101199B04C01A9B02C0FA
S11308B018990AC08AE08093110111C01C992AC0BA
S11308C08BE08093110129C08091110190E0FC011B
S11308D03197EB30F10528F5EE57FF4F46C580E11F
S11308E082B9089582E082B9089584E082B90895B6
S11308F081E082B9089588E082B9089582E082B9DE
S1130900089584E082B9089581E082B9089582E06F
S113091082B9089588E082B9089512B886E0809378
S11309200401089520910C01822F90E08D309105EF
S113093008F040C0FC01E357FF4F17C58091040144
S1130940863009F040C018993EC0189BFECF81E064
S113095080930C013AC082E080930C0139C083E09B
S113096080930C0138C084E080930C0137C085E08B
S113097080930C0136C086E080930C0135C087E07B
S113098080930C0134C088E080930C0133C089E06B
S113099080930C0132C08AE080930C0131C08BE05B
S11309A080930C0130C08CE080930C012FC0109216
S11309B00C0109C0822F90E08D30910560F5FC0197
S11309C0E656FF4FD2C412B8089581E082B9089563
S11309D088E082B9089582E082B9089581E082B9FD
S11309E0089582E082B9089588E082B9089582E08A
S11309F082B9089581E082B9089588E082B90895A2
S1130A0081E082B9089582E082B9089581E082B9D3
S1130A1087E080930401089580910E0190E08E3068
S1130A20910508F0E4C0FC01E955FF4F9EC4809194
S1130A300401873009F011C112B8189905C0189B38
S1130A40FECF81E080930E01199B04C01A9B02C063
S1130A501B99CDC08DE080930E01D4C01B9905C0B5
S1130A601B9BFECF82E080930E01199B04C01A9B4E
S1130A7002C01899BCC08DE080930E01C3C01999BF
S1130A8005C0199BFECF83E080930E01189B04C020
S1130A901A9B02C01B99ABC08DE080930E01B2C0BB
S1130AA0189905C0189BFECF84E080930E01199B12
S1130AB004C01A9B02C01B999AC08DE080930E015A
S1130AC0A1C0199905C0199BFECF85E080930E0142
S1130AD0189B04C01A9B02C01B9989C08DE08093A7
S1130AE00E0190C01B9905C01B9BFECF86E080932E
S1130AF00E01199B04C01A9B02C0189978C08DE09E
S1130B0080930E017FC0199905C0199BFECF87E021
S1130B1080930E01189B04C01A9B02C01B9967C0E6
S1130B208DE080930E016EC0189905C0189BFECF0E
S1130B3088E080930E01199B04C01A9B02C01B9984
S1130B4056C08DE080930E015DC01B9905C01B9BB0
S1130B50FECF89E080930E01199B04C01A9B02C04A
S1130B60189945C08DE080930E014CC0189905C0BA
S1130B70189BFECF8AE080930E01199B04C01A9B38
S1130B8002C01B9934C08DE080930E013BC01999BB
S1130B9005C0199BFECF8BE080930E01189B04C007
S1130BA01A9B02C01B9923C08DE080930E012AC0BA
S1130BB0189905C0189BFECF8CE080930E01199BF9
S1130BC004C01A9B02C01B9912C08DE080930E01D1
S1130BD019C01C993BC08EE080930E013AC018994D
S1130BE011C0189BFECF81E080930E010EC080914E
S1130BF00E0190E0FC013197EE30F10570F5EB54F5
S1130C00FF4FB3C380E182B9089581E082B90895AA
S1130C1088E082B9089582E082B9089581E082B9BA
S1130C20089582E082B9089588E082B9089582E047
S1130C3082B9089581E082B9089588E082B908955F
S1130C4081E082B9089582E082B9089581E082B991
S1130C50089512B888E08093040108952091120148
S1130C60822F90E08031910508F04CC0FC01ED53D7
S1130C70FF4F7BC380910401883009F04CC0189960
S1130C804AC0189BFECF81E08093120146C082E0E7
S1130C908093120145C083E08093120144C084E034
S1130CA08093120143C085E08093120142C086E024
S1130CB08093120141C087E08093120140C088E014
S1130CC0809312013FC089E0809312013EC08AE004
S1130CD0809312013DC08BE0809312013CC08CE0F4
S1130CE0809312013BC08DE0809312013AC08EE0E4
S1130CF08093120139C08FE08093120138C01092A2
S1130D00120109C0822F90E080319105A8F5FC0101
S1130D10ED52FF4F2AC312B8089588E082B90895AE
S1130D2084E082B9089582E082B9089581E082B9AD
S1130D30089582E082B9089581E082B9089584E03B
S1130D4082B9089588E082B9089582E082B908954D
S1130D5081E082B9089582E082B9089581E082B980
S1130D60089584E082B9089588E082B9089581E005
S1130D7082B989E08093040108958091130190E081
S1130D808131910508F017C1FC01ED51FF4FEDC20F
S1130D9080910401893009F04AC112B81B9905C039
S1130DA01B9BFECF81E080931301199B04C01A9B07
S1130DB002C0189900C180E18093130107C11A99F8
S1130DC005C01A9BFECF82E080931301199B04C0D7
S1130DD0189B02C01B99EFC080E180931301F6C0F9
S1130DE0199905C0199BFECF83E080931301189BCA
S1130DF004C01A9B02C01B99DEC080E180931301DA
S1130E00E5C0189905C0189BFECF84E080931301B8
S1130E10199B04C01A9B02C01B99CDC080E180932A
S1130E201301D4C0199905C0199BFECF85E08093A6
S1130E301301189B04C01A9B02C01B99BCC080E11B
S1130E4080931301C3C0189905C0189BFECF86E098
S1130E5080931301199B04C01A9B02C01B99ABC059
S1130E6080E180931301B2C01A9905C01A9BFECF8A
S1130E7087E080931301199B04C0189B02C01B993F
S1130E809AC080E180931301A1C01B9905C01B9BEC
S1130E90FECF88E080931301199B04C01A9B02C003
S1130EA0189989C080E18093130190C0199905C0F5
S1130EB0199BFECF89E080931301189B04C01A9BF1
S1130EC002C01B9978C080E1809313017FC01899F8
S1130ED005C0189BFECF8AE080931301199B04C0C0
S1130EE01A9B02C01B9967C080E1809313016EC0F6
S1130EF0199905C0199BFECF8BE080931301189BB1
S1130F0004C01A9B02C01B9956C080E18093130150
S1130F105DC0189905C0189BFECF8CE08093130127
S1130F20199B04C01A9B02C01B9945C080E18093A1
S1130F3013014CC01A9905C01A9BFECF8DE0809313
S1130F401301199B04C0189B02C01B9934C080E193
S1130F50809313013BC01B9905C01B9BFECF8EE001
S1130F6080931301199B04C01A9B02C0189923C0D3
S1130F7080E1809313012AC0189905C0189BFECF05
S1130F808FE080931301199B04C01A9B02C01B9924
S1130F9012C080E18093130119C01C9944C081E1FF
S1130FA08093130143C01B9911C01B9BFECF81E0AA
S1130FB0809313010EC08091130190E0FC013197DE
S1130FC0E131F105A0F5EC50FF4FCFC180E182B9CA
S1130FD0089588E082B9089584E082B9089582E092
S1130FE082B9089581E082B9089582E082B90895B2
S1130FF081E082B9089584E082B9089588E082B9D5
S1131000089582E082B9089581E082B9089582E06A
S113101082B9089581E082B9089584E082B908957F
S113102088E082B9089581E082B9089512B80895DC
S1131030CF92DF92EF92FF928FEF81B912B814B87A
S113104085B980910401811189C10F2EF4EFCF2E4F
S1131050DD24D394E12CF12CF02DC0920001D09228
S11310600101E0920201F0920301C0920501D092C5
S11310700601E0920701F0920801E6D845D9809173
S113108009018823E1F31092090180910401882366
S113109021F3813019F50F2EF8ECCF2ED12CE12C51
S11310A0F12CF02DC0920001D0920101E0920201D6
S11310B0F0920301C0920501D0920601E09207016B
S11310C0F0920801C1D867D9809109018823E1F31E
S11310D01092090180910401813021F3809104016F
S11310E0823021F50F2EF4EFCF2EDD24D394E12CA2
S11310F0F12CF02DC0920001D0920101E092020186
S1131100F0920301C0920501D0920601E09207011A
S1131110F092080199D8CCD9809109018823E1F390
S11311201092090180910401823021F3809104011D
S1131130833019F50F2EF8ECCF2ED12CE12CF12CA5
S1131140F02DC0920001D0920101E0920201F092D0
S11311500301C0920501D0920601E0920701F092CA
S1131160080172D8F7D9809109018823E1F310921C
S1131170090180910401833021F3809104018430BA
S113118021F50F2EF4EFCF2EDD24D394E12CF12C96
S1131190F02DC0920001D0920101E0920201F09280
S11311A00301C0920501D0920601E0920701F0927A
S11311B008014AD86EDA809109018823E1F310927C
S11311C0090180910401843021F380910401853068
S11311D019F50F2EF8ECCF2ED12CE12CF12CF02D9B
S11311E0C0920001D0920101E0920201F092030149
S11311F0C0920501D0920601E0920701F092080125
S113120023D8AADA809109018823E1F31092090115
S113121080910401853021F380910401863029F501
S11312200F2EF4EFCF2EDD24D394E12CF12CF02DEE
S1131230C0920001D0920101E0920201F0920301F8
S1131240C0920501D0920601E0920701F0920801D4
S11312500E94240167DB809109018823E1F3109245
S1131260090180910401863019F3809104018730CB
S113127021F50F2EF8ECCF2ED12CE12CF12CF02DF2
S1131280C0920001D0920101E0920201F0920301A8
S1131290C0920501D0920601E0920701F092080184
S11312A00E942401B9DB809109018823E1F31092A3
S11312B0090180910401873019F380910401883079
S11312C029F50F2EF4EFCF2EDD24D394E12CF12C4D
S11312D0F02DC0920001D0920101E0920201F0923F
S11312E00301C0920501D0920601E0920701F09239
S11312F008010E942401B2DC809109018823E1F3F2
S11313001092090180910401883019F3809104013D
S1131310893021F50F2EF8ECCF2ED12CE12CF12CB5
S1131320F02DC0920001D0920101E0920201F092EE
S11313300301C0920501D0920601E0920701F092E8
S113134008010E94240119DD809109018823E1F339
S11313501092090180910401893019F380E090E032
S1131360FF90EF90DF90CF900895EE0FFF1F059050
S10D1370F491E02D0994F894FFCFE6
S107137A010000006A
S9030000FC
