S0150000326E645F66696E616C5F70726A2E73726563F7
S11300004EC0000069C0000067C0000065C0000069
S113001063C0000061C000005FC000005DC000005C
S11300205BC0000059C0000057C0000055C000006C
S113003053C0000076C000004FC000004DC0000057
S11300404BC0000049C0000047C0000045C000008C
S113005043C0000041C000003FC000003DC000009C
S11300603BC0000039C0000037C0000035C00000AC
S113007033C0000031C000002FC000002DC00000BC
S11300802BC0000029C0000027C00000D800EB00EE
S1130090F100F700FD00030109010F01150111240E
S11300A01FBECFEFD0E4DEBFCDBF11E0A0E0B1E0D2
S11300B0ECECF2E000E00BBF02C007900D92A4301C
S11300C0B107D9F721E0A4E0B1E001C01D92A2314B
S11300D0B207E1F7B7D0F8C093CF8BE080938100EB
S11300E08DE790E0909389008093880082E080936C
S11300F06F0010928500109284008091000190910D
S11301000101A0910201B091030180930501909334
S11301100601A0930701B09308018FB780688FBFD1
S113012008951F920F920FB60F9211248F939F93ED
S1130130AF93BF938091050190910601A0910701AF
S1130140B09108010197A109B10980930501909329
S11301500601A0930701B0930801892B8A2B8B2BEE
S113016099F481E08093090180910001909101014B
S1130170A0910201B09103018093050190930601BF
S1130180A0930701B0930801BF91AF919F918F9104
S11301900F900FBE0F901F90189580910B0190E067
S11301A08930910508F047C0FC01EA5BFF4F86C027
S11301B080910401843009F040C082B9189908C0C4
S11301C0189BFECF81E080930B0182E082B90895F1
S11301D010920B0132C082E080930B0184E082B95B
S11301E0089583E080930B0181E082B9089584E04F
S11301F080930B0188E082B9089585E080930B0118
S113020082E082B9089586E080930B0184E082B98C
S1130210089587E080930B0181E082B9089588E016
S113022080930B0182E082B9089589E080930B01E9
S113023088E082B9089510920B0185E0809304014F
S113024012B80895CF92DF92EF92FF92CF938FEF7F
S113025081B912B814B885B980910401843031F59C
S1130260C4E00F2EF8EECF2EF3E0DF2EE12CF12CBC
S1130270F02DC2B9C0920001D0920101E0920201B6
S1130280F0920301C0920501D0920601E0920701A9
S1130290F092080122DF81DF809109018823E1F3D4
S11302A01092090180910401843019F380E090E0F8
S11302B0CF91FF90EF90DF90CF900895EE0FFF1F46
S10F02C00590F491E02D0994F894FFCF10
S10702CC0100000029
S9030000FC
