:10000000A6C00000C1C00000BFC00000BDC000000D
:10001000BBC00000B9C00000B7C00000B5C0000000
:10002000B3C00000B1C00000AFC00000ADC0000010
:10003000ABC00000CEC00000A7C00000A5C00000FB
:10004000A3C00000A1C000009FC000009DC0000030
:100050009BC0000099C0000097C0000095C0000040
:1000600093C0000091C000008FC000008DC0000050
:100070008BC0000089C0000087C0000085C0000060
:1000800083C0000081C000007FC000000302130293
:1000900017021B021F0223022702370239023C0209
:1000A0003F02420245024802560267027802890274
:1000B0009A02AB02BC02D302D602D902DC02DF02F2
:1000C000E202D002E502F5020103050309030D0374
:1000D0001103150319031D0321032D032F033203FD
:1000E000350338033B033E034103440347035803EE
:1000F000770388039903AA03BB03CC03DD03EE0354
:10010000FF036F031304160419041C041F042204C4
:10011000250428042B0410042E043F044C0450042E
:10012000540458045C046004640468046C0470049F
:10013000740478048404860489048C048F04920473
:10014000950498049B049E04A104A404A70411240C
:100150001FBECFEFD0E4DEBFCDBF11E0A0E0B1E025
:10016000E4EBFBE000E00BBF02C007900D92A4306F
:10017000B107D9F721E0A4E0B1E001C01D92A3319D
:10018000B207E1F7EAD314C53BCF8BE0809381003F
:100190008DE790E0909389008093880082E08093BF
:1001A0006F00109285001092840080910001909160
:1001B0000101A0910201B091030180930501909388
:1001C0000601A0930701B09308018FB780688FBF25
:1001D00008951F920F920FB60F9211248F939F9341
:1001E000AF93BF938091050190910601A091070103
:1001F000B09108010197A109B1098093050190937D
:100200000601A0930701B0930801892B8A2B8B2B41
:1002100099F481E08093090180910001909101019E
:10022000A0910201B0910301809305019093060112
:10023000A0930701B0930801BF91AF919F918F9157
:100240000F900FBE0F901F90189580910F01823074
:10025000C9F028F4882341F0813081F020C0833038
:10026000A9F08430B9F01BC080910401811126C02F
:100270001C9924C081E080930F0122C082E080930A
:100280000F0121C083E080930F0120C084E08093A0
:100290000F011FC010920F0181E080930401809133
:1002A0000F01823081F028F4882341F0813041F041
:1002B0000895833059F0843071F40BC012B808955A
:1002C00081E082B9089582E082B9089584E082B91C
:1002D000089588E082B90895809112018230A9F1D1
:1002E00028F4882359F08130F9F05FC0843009F494
:1002F0004EC0E0F1853009F450C057C08091040130
:10030000813009F075C0189905C0189BFECF81E0B7
:1003100080931201199B04C01A9B02C01B9945C00F
:1003200085E08093120151C0199905C0199BFECF39
:1003300082E080931201189B04C01A9B02C01B9993
:1003400034C085E08093120140C01A9905C01A9B01
:10035000FECF83E080931201199B04C0189B02C05A
:100360001B9923C085E0809312012FC01B9905C003
:100370001B9BFECF84E080931201199B04C01A9B43
:1003800002C0189912C085E0809312011EC01C990A
:1003900028C086E08093120127C0189916C0189BC8
:1003A000FECF81E08093120113C08091120183304F
:1003B000A9F028F4813061F0823069F00895853029
:1003C00021F078F0863081F0089580E182B90895B7
:1003D00081E082B9089582E082B9089584E082B90B
:1003E000089588E082B9089512B882E080930401EC
:1003F000089580910E0190E08730910570F5FC0121
:10040000EA5BFF4FCFC380910401823081F51899D8
:1004100003C081E080930E01189B1FC010920E0153
:100420001899FCCF24C082E080930E0125C083E0A0
:1004300080930E0124C084E080930E0123C085E0E8
:1004400080930E0122C086E080930E0121C083E0DC
:100450008093040110920E010AC080910E0190E079
:1004600087309105B8F4FC01E35BFF4F9BC312B8E2
:10047000089581E082B9089584E082B9089588E002
:1004800082B9089581E082B9089582E082B9089521
:1004900081E082B9089580910A0190E0873091054A
:1004A00008F070C0FC01EC5AFF4F7CC3189905C0DE
:1004B000189BFECF81E080930A01199B04C01A9B10
:1004C00002C01B9962C087E080930A0169C01A9933
:1004D00005C01A9BFECF82E080930A01199B04C0DD
:1004E000189B02C01B9951C085E080930A0167C028
:1004F0001B9905C01B9BFECF83E080930A01199BCB
:1005000004C01A9B02C0189940C087E080930A017A
:1005100047C0189905C0189BFECF84E080930A015C
:10052000199B04C01A9B02C01B992FC087E08093BF
:100530000A0136C0199905C0199BFECF85E080934A
:100540000A01189B04C01A9B02C01B991EC087E0B9
:1005500080930A0125C0189905C0189BFECF86E03C
:1005600080930A01199B04C01A9B02C01B990DC0FD
:1005700087E080930A0114C01C9924C088E080930E
:100580000A0123C010920A01089580910A0190E0A7
:10059000FC013197E830F105E0F4E55AFF4F02C362
:1005A00080E182B9089581E082B9089584E082B93A
:1005B000089588E082B9089581E082B9089582E0C3
:1005C00082B9089581E082B9089512B884E08093D9
:1005D0000401089520910B01822F90E08A3091054B
:1005E00098F5FC01ED59FF4FDDC280910401843084
:1005F000A1F5189932C0189BFECF81E080930B01C2
:100600002EC082E080930B012DC083E080930B010C
:100610002CC084E080930B012BC085E080930B01FC
:100620002AC086E080930B0129C087E080930B01EC
:1006300028C088E080930B0127C089E080930B01DC
:1006400026C010920B0109C0822F90E08A309105DC
:1006500018F5FC01E359FF4FA5C212B8089582E0D6
:1006600082B9089584E082B9089581E082B908953D
:1006700088E082B9089582E082B9089584E082B961
:10068000089581E082B9089582E082B9089588E0F2
:1006900082B985E08093040108958091100190E073
:1006A0008B30910508F0B1C0FC01E958FF4F7AC2C8
:1006B00080910401853009F0D5C012B8199905C0A0
:1006C000199BFECF81E080931001189B04C01A9BF8
:1006D00002C01B999AC08AE080931001A1C01999A9
:1006E0009FC0199BFECF81E0809310019CC01A9996
:1006F00005C01A9BFECF82E080931001199B04C0B5
:10070000189B02C01B9981C08AE08093100188C0A9
:10071000189905C0189BFECF83E080931001199BA8
:1007200004C01A9B02C01B9970C08AE0809310011C
:1007300077C01B9905C01B9BFECF84E080931001FE
:10074000199B04C01A9B02C018995FC08AE080936D
:10075000100166C0199905C0199BFECF85E08093F2
:100760001001189B04C01A9B02C01B994EC08AE05E
:100770008093100155C01A9905C01A9BFECF86E0E0
:1007800080931001199B04C0189B02C01B993DC0A7
:100790008AE08093100144C0189905C0189BFECFD1
:1007A00087E080931001199B04C01A9B02C01B991B
:1007B0002CC08AE08093100133C0199905C0199BA1
:1007C000FECF88E080931001189B04C01A9B02C0E2
:1007D0001B991BC08AE08093100122C01B9905C0A1
:1007E0001B9BFECF89E080931001199B04C01A9BCC
:1007F00002C018990AC08AE08093100111C01C99A8
:100800002AC08BE08093100129C08091100190E0F4
:10081000FC013197EB30F10528F5EE57FF4FC2C1CF
:1008200080E182B9089582E082B9089584E082B9B6
:10083000089581E082B9089588E082B9089582E040
:1008400082B9089584E082B9089581E082B908955B
:1008500082E082B9089588E082B9089512B886E0EE
:1008600080930401089520910C01822F90E08D3037
:10087000910508F040C0FC01E357FF4F93C1809100
:100880000401863009F040C018993EC0189BFECF85
:1008900081E080930C013AC082E080930C0139C062
:1008A00083E080930C0138C084E080930C0137C052
:1008B00085E080930C0136C086E080930C0135C042
:1008C00087E080930C0134C088E080930C0133C032
:1008D00089E080930C0132C08AE080930C0131C022
:1008E0008BE080930C0130C08CE080930C012FC012
:1008F00010920C0109C0822F90E08D30910560F5B7
:10090000FC01E656FF4F4EC112B8089581E082B94E
:10091000089588E082B9089582E082B9089581E05F
:1009200082B9089582E082B9089588E082B9089575
:1009300082E082B9089581E082B9089588E082B9A1
:10094000089581E082B9089582E082B9089581E036
:1009500082B987E0809304010895CF92DF92EF92ED
:10096000FF928FEF81B912B814B885B98091040154
:10097000811111C10F2EFCEBCF2EF2E0DF2EE12C06
:10098000F12CF02DC0920001D0920101E092020101
:10099000F0920301C0920501D0920601E092070196
:1009A000F0920801F2DB51DC809109018823E1F328
:1009B0001092090180910401882321F3813019F5F7
:1009C0000F2EF8ECCF2ED12CE12CF12CF02DC09273
:1009D0000001D0920101E0920201F0920301C09265
:1009E0000501D0920601E0920701F0920801CDDBEB
:1009F00073DC809109018823E1F310920901809151
:100A00000401813021F380910401823021F50F2E01
:100A1000F8EECF2EF3E0DF2EE12CF12CF02DC0927A
:100A20000001D0920101E0920201F0920301C09214
:100A30000501D0920601E0920701F0920801A5DBC2
:100A4000D8DC809109018823E1F31092090180919B
:100A50000401823021F380910401833021F50F2EAF
:100A6000F0E9CF2EDD24D394E12CF12CF02DC092AF
:100A70000001D0920101E0920201F0920301C092C4
:100A80000501D0920601E0920701F09208017DDB9A
:100A900002DD809109018823E1F310920901809120
:100AA0000401833021F380910401843021F50F2E5D
:100AB000F8EECF2EF3E0DF2EE12CF12CF02DC092DA
:100AC0000001D0920101E0920201F0920301C09274
:100AD0000501D0920601E0920701F092080155DB72
:100AE00079DD809109018823E1F310920901809159
:100AF0000401843021F380910401853021F50F2E0B
:100B0000F0E9CF2EDD24D394E12CF12CF02DC0920E
:100B10000001D0920101E0920201F0920301C09223
:100B20000501D0920601E0920701F09208012DDB49
:100B3000B4DD809109018823E1F3109209018091CD
:100B40000401853021F380910401863021F50F2EB8
:100B5000F8EECF2EF3E0DF2EE12CF12CF02DC09239
:100B60000001D0920101E0920201F0920301C092D3
:100B70000501D0920601E0920701F092080105DB21
:100B800072DE809109018823E1F3109209018091BE
:100B90000401863021F380E090E0FF90EF90DF9039
:100BA000CF900895EE0FFF1F0590F491E02D09946A
:040BB000F894FFCFE7
:040BB400010000003C
:00000001FF
