S0150000326E645F66696E616C5F70726A2E73726563F7
S113000004C1000021C100001FC100001DC1000087
S11300101BC1000019C1000017C1000015C1000078
S113002013C1000011C100000FC100000DC1000088
S11300300BC100008BC1000007C1000005C1000016
S113004003C1000001C10000FFC00000FDC00000AA
S1130050FBC00000F9C00000F7C00000F5C00000BC
S1130060F3C00000F1C00000EFC00000EDC00000CC
S1130070EBC00000E9C00000E7C00000E5C00000DC
S1130080E3C00000E1C00000DFC0000063037303AD
S113009077037B037F038303870398039A039D03FA
S11300A0A003A303A603A903B803D703F603150407
S11300B03404530472048F0496049D04A404AB0412
S11300C0B2048804B904CE04DA04DE04E204E604CB
S11300D0EA04EE04F204F604FA04070509050C0523
S11300E00F051205150518051B051E052105330509
S11300F060057F059E05BD05DC05FB051A0639066E
S113010058065805710678067F0686068D069406FD
S11301109B06A206A9066A06B006C506D206D6063E
S1130120DA06DE06E206E606EA06EE06F206F6065B
S1130130FA06FE060A070C070F0712071507180729
S11301401B071E072107240727072A072D073E0739
S113015063078207A107C007DF07FE071D083C08E5
S11301605B087A089908B808BE08D908E008E708C7
S1130170EE08F508FC0803090A09110918091F0902
S11301802609D2082D0942094F09530957095B0969
S11301905F09630967096B096F09730977097B09AB
S11301A07F09830987099309950998099B099E0981
S11301B0A109A409A709AA09AD09B009B309B60997
S11301C0B909BC09BF09D009F509140A330A520A4E
S11301D0710A900AAF0ACE0AED0A0C0B2B0B4A0BDC
S11301E0690B880BA70BAD0BCA0BD30BDC0BE50B10
S11301F0EE0BF70B000C090C120C1B0C240C2D0C31
S1130200360C3F0C480CC10B510C11241FBECFEF10
S1130210D0E4DEBFCDBF11E0A0E0B1E0E0E2FCE15C
S113022000E00BBF02C007900D92A231B107D9F7CD
S113023021E0A2E1B1E001C01D92A432B207E1F7CE
S11302400E94530C0C940E0EDBCE181619069CF467
S113025040E050E077E063E00BC00000215031093A
S113026021153105D1F74F5F5F4F4817590719F032
S1130270272F362FF2CF08955E9888B95F9A000031
S11302805F9882E090E0E1CF089581E0F5CF089592
S1130290813118F48158F0CF08958155EDCF089538
S11302A084E690E0D2DF88E3E7DF86E0E5DF8FE0F5
S11302B0E3DF81E0E1DF8AE090E0C7CF08955E9A52
S11302C088B95F9A00005F9881E090E0BECF0895FE
S11302D00F931F93CF93DF93182FEB01D6DF888101
S11302E0882359F001E0010F812FD2DF8991E7DFE4
S11302F08881882311F0102FF5CFDF91CF911F91C2
S11303000F9108958BE0809381008DE790E09093A6
S113031089008093880082E080936F0010928500AA
S1130320109284008091010190910201A091030137
S1130330B09104018093130190931401A0931501CB
S1130340B09316018FB780688FBF08951F920F92E4
S11303500FB60F9211248F939F93AF93BF93809105
S1130360130190911401A0911501B0911601019708
S1130370A109B1098093130190931401A09315016D
S1130380B0931601892B8A2B8B2B99F481E08093EF
S113039017018091010190910201A0910301B09194
S11303A004018093130190931401A0931501B09359
S11303B01601BF91AF919F918F910F900FBE0F9037
S11303C01F90189520E030E090E04BB1407F4860EA
S11303D04BB96BB1AC01022E02C0559547950A94F6
S11303E0E2F74170462B4BB9599A2F5F3F4F2830A3
S11303F0310559F75A9A8BB1807F8BB908958930AA
S1130400A1F08830A1F08730A1F08630A1F08530CA
S1130410A1F08430A1F08330A1F08230A1F08130CA
S1130420A1F08823A1F080E0089589E1089580E097
S113043008958FE1089580E4089588E4089588E993
S113044008958CE0089584E208958EE9089582E089
S1130450089580911E018230C9F028F4882341F068
S1130460813081F020C08330A9F08430B9F01BC002
S113047080911201811126C01C9924C081E08093CF
S11304801E012BC082E080931E012AC083E080936A
S11304901E0129C084E080931E0128C010921E0111
S11304A081E08093120180911E018230C9F028F40A
S11304B0882341F0813089F008958330A1F084309D
S11304C0B9F414C0EDDE65E071E081E001DF12B83B
S11304D08091000194DF76CF089581E082B9089578
S11304E082E082B9089584E082B9089588E082B9EF
S11304F0089580912301823009F452C028F488239E
S113050061F0813071F198C0843009F487C008F437
S113051066C0853009F488C08FC080911201813093
S113052009F0C5C0189905C0189BFECF81E08093DF
S11305302301199B04C01A9B02C01B997DC0209102
S11305400001822F90E00197992324F021502093F9
S1130550000103C084E18093120185E080932301AC
S11305607BC0199905C0199BFECF82E080932301BB
S1130570189B04C01A9B02C01B995EC02091000105
S1130580822F90E00197992324F0215020930001B9
S113059003C084E18093120185E0809323015CC051
S11305A01A9905C01A9BFECF83E080932301199BFF
S11305B004C0189B02C01B993FC020910001822FE8
S11305C090E00197992324F021502093000103C067
S11305D084E18093120185E0809323013DC01B993F
S11305E005C01B9BFECF84E080932301199B04C0AC
S11305F01A9B02C0189920C020910001822F90E01C
S11306000197992324F021502093000103C084E131
S11306108093120185E0809323011EC01C9938C089
S113062086E0809323013BC0189916C0189BFECF27
S113063081E08093230117C080912301833009F165
S113064028F4813081F08230A9F00895853021F0BA
S1130650F8F0863021F1089580E182B9809100019B
S1130660CEDEB0CE089581E082B980910001C7DE6C
S1130670A9CE089582E082B980910001C0DEA2CEA5
S1130680089584E082B980910001B9DE9BCE08957B
S113069088E082B980910001B2DE94CE089512B848
S11306A080910001ACDE8EDE82E080931201089519
S11306B080911D0190E08730910578F5FC01EA5B9B
S11306C0FF4F0C94080E80911201823089F518991D
S11306D003C081E080931D01189B1FC010921D016F
S11306E01899FCCF25C082E080931D0126C083E0C9
S11306F080931D0125C084E080931D0124C085E002
S113070080931D0123C086E080931D0122C083E0F5
S11307108093120110921D010BC080911D0190E085
S113072087309105C0F4FC01E35BFF4F0C94080E85
S113073012B8089581E082B9089584E082B90895D9
S113074088E082B9089581E082B9089582E082B98F
S1130750089581E082B908958091180190E087306E
S1130760910508F0C5C0FC01EC5AFF4F0C94080E2B
S1130770189905C0189BFECF81E080931801199B3E
S113078004C01A9B02C01B99B6C020910001822F9D
S113079090E00197992324F021502093000103C095
S11307A084E18093120187E080931801B1C01A9903
S11307B005C01A9BFECF82E080931801199B04C0E8
S11307C0189B02C01B9997C020910001822F90E0D2
S11307D00197992324F021502093000103C084E160
S11307E08093120187E08093180192C01B9905C081
S11307F01B9BFECF83E080931801199B04C01A9BB6
S113080002C0189978C020910001822F90E00197CE
S1130810992324F021502093000103C084E18093A4
S1130820120187E08093180173C0189905C0189BC2
S1130830FECF84E080931801199B04C01A9B02C068
S11308401B9959C020910001822F90E001979923B0
S113085024F021502093000103C084E1809312010D
S113086087E08093180154C0199905C0199BFECFE5
S113087085E080931801189B04C01A9B02C01B9941
S11308803AC020910001822F90E00197992324F02F
S113089021502093000103C084E18093120187E07A
S11308A08093180135C0189905C0189BFECF86E0C7
S11308B080931801199B04C01A9B02C01B991BC08A
S11308C020910001822F90E00197992324F0215078
S11308D02093000103C084E18093120187E0809398
S11308E0180116C01C993EC088E08093180141C0CD
S11308F01092180108958091180190E0FC0131973D
S1130900E830F10508F03DC0E55AFF4F0C94080E9D
S113091080E182B98091000172DD54CD089581E0B7
S113092082B9809100016BDD4DCD089584E082B9D8
S11309308091000164DD46CD089588E082B98091FC
S113094000015DDD3FCD089581E082B98091000111
S113095056DD38CD089582E082B9809100014FDDE3
S113096031CD089581E082B98091000148DD2ACD1E
S1130970089512B88091000142DD24DD84E0809363
S11309801201089520911901822F90E08A30910577
S1130990A0F5FC01ED59FF4F0C94080E8091120153
S11309A08430A9F5189933C0189BFECF81E0809359
S11309B019012FC082E0809319012EC083E0809337
S11309C019012DC084E0809319012CC085E0809327
S11309D019012BC086E0809319012AC087E0809317
S11309E0190129C088E08093190128C089E0809307
S11309F0190127C0109219010AC0822F90E08A3091
S1130A00910520F5FC01E359FF4F0C94080E12B830
S1130A10089582E082B9089584E082B9089581E05E
S1130A2082B9089588E082B9089582E082B9089570
S1130A3084E082B9089581E082B9089582E082B9A0
S1130A40089588E082B985E0809312010895809129
S1130A501F0190E08B30910508F030C1FC01E9588A
S1130A60FF4F0C94080E80911201853009F080C16B
S1130A7012B8199905C0199BFECF81E080931F011C
S1130A80189B04C01A9B02C01B9918C12091000135
S1130A90822F90E00197992324F0215020930001A4
S1130AA003C084E1809312018AE080931F0112C184
S1130AB0199910C1199BFECF81E080931F0111C1C8
S1130AC01A9905C01A9BFECF82E080931F01199BDF
S1130AD004C0189B02C01B99F1C020910001822F11
S1130AE090E00197992324F021502093000103C042
S1130AF084E1809312018AE080931F01EBC018996E
S1130B0005C0189BFECF83E080931F01199B04C08E
S1130B101A9B02C01B99D2C020910001822F90E041
S1130B200197992324F021502093000103C084E10C
S1130B30809312018AE080931F01CCC01B9905C0E9
S1130B401B9BFECF84E080931F01199B04C01A9B5A
S1130B5002C01899B3C020910001822F90E0019740
S1130B60992324F021502093000103C084E1809351
S1130B7012018AE080931F01ADC0199905C0199B29
S1130B80FECF85E080931F01189B04C01A9B02C00E
S1130B901B9994C020910001822F90E00197992322
S1130BA024F021502093000103C084E180931201BA
S1130BB08AE080931F018EC01A9905C01A9BFECF4C
S1130BC086E080931F01199B04C0189B02C01B99E7
S1130BD075C020910001822F90E00197992324F0A1
S1130BE021502093000103C084E1809312018AE024
S1130BF080931F016FC0189905C0189BFECF87E032
S1130C0080931F01199B04C01A9B02C01B9956C0F4
S1130C1020910001822F90E00197992324F0215024
S1130C202093000103C084E1809312018AE0809341
S1130C301F0150C0199905C0199BFECF88E080930D
S1130C401F01189B04C01A9B02C01B9937C0209136
S1130C500001822F90E00197992324F021502093E2
S1130C60000103C084E1809312018AE080931F0194
S1130C7031C01B9905C01B9BFECF89E080931F01E7
S1130C80199B04C01A9B02C0189918C02091000136
S1130C90822F90E00197992324F0215020930001A2
S1130CA003C084E1809312018AE080931F0112C083
S1130CB01C994FC08BE080931F0152C080911F018B
S1130CC090E0FC013197EB30F10508F051C0EE578C
S1130CD0FF4F9EC78091000192DB74DB80E182B9F3
S1130CE00895809100018BDB6DDB82E082B9089569
S1130CF08091000184DB66DB84E082B908958091F1
S1130D0000017DDB5FDB81E082B908958091000101
S1130D1076DB58DB88E082B90895809100016FDBAF
S1130D2051DB82E082B908958091000168DB4ADBDF
S1130D3084E082B908958091000161DB43DB81E0A6
S1130D4082B90895809100015ADB3CDB82E082B9CC
S1130D5008958091000153DB35DB88E082B9089562
S1130D6012B8809100014BDB2DDB86E080931201E9
S1130D70089520911A01822F90E08D30910508F09A
S1130D8040C0FC01E357FF4F43C7809112018630F6
S1130D9009F040C018993EC0189BFECF81E08093B3
S1130DA01A013AC082E080931A0139C083E080932B
S1130DB01A0138C084E080931A0137C085E080931B
S1130DC01A0136C086E080931A0135C087E080930B
S1130DD01A0134C088E080931A0133C089E08093FB
S1130DE01A0132C08AE080931A0131C08BE08093EB
S1130DF01A0130C08CE080931A012FC010921A019E
S1130E0009C0822F90E08D30910560F5FC01E65613
S1130E10FF4FFEC612B8089581E082B9089588E0B4
S1130E2082B9089582E082B9089581E082B9089573
S1130E3082E082B9089588E082B9089582E082B997
S1130E40089581E082B9089588E082B9089581E027
S1130E5082B9089582E082B9089581E082B987E079
S1130E6080931201089580911C0190E08E309105C9
S1130E7008F08CC1FC01E955FF4FCAC680911201EC
S1130E80873009F0F2C112B8189905C0189BFECF3B
S1130E9081E080931C01199B04C01A9B02C01B991A
S1130EA075C120910001822F90E00197992324F0CD
S1130EB021502093000103C084E1809312018DE04E
S1130EC080931C016FC11B9905C01B9BFECF82E060
S1130ED080931C01199B04C01A9B02C0189956C127
S1130EE020910001822F90E00197992324F0215052
S1130EF02093000103C084E1809312018DE080936C
S1130F001C0150C1199905C0199BFECF83E0809341
S1130F101C01189B04C01A9B02C01B9937C1209165
S1130F200001822F90E00197992324F0215020930F
S1130F30000103C084E1809312018DE080931C01C1
S1130F4031C1189905C0189BFECF84E080931C0121
S1130F50199B04C01A9B02C01B9918C1209100015F
S1130F60822F90E00197992324F0215020930001CF
S1130F7003C084E1809312018DE080931C0112C1AF
S1130F80199905C0199BFECF85E080931C01189B1D
S1130F9004C01A9B02C01B99F9C020910001822F42
S1130FA090E00197992324F021502093000103C07D
S1130FB084E1809312018DE080931C01F3C01B999E
S1130FC005C01B9BFECF86E080931C01199B04C0C7
S1130FD01A9B02C01899DAC020910001822F90E078
S1130FE00197992324F021502093000103C084E148
S1130FF0809312018DE080931C01D4C0199905C01F
S1131000199BFECF87E080931C01189B04C01A9B98
S113101002C01B99BBC020910001822F90E0019770
S1131020992324F021502093000103C084E180938C
S113103012018DE080931C01B5C0189905C0189B5E
S1131040FECF88E080931C01199B04C01A9B02C048
S11310501B999CC020910001822F90E00197992355
S113106024F021502093000103C084E180931201F5
S11310708DE080931C0196C01B9905C01B9BFECF7D
S113108089E080931C01199B04C01A9B02C0189923
S11310907DC020910001822F90E00197992324F0D4
S11310A021502093000103C084E1809312018DE05C
S11310B080931C0177C0189905C0189BFECF8AE065
S11310C080931C01199B04C01A9B02C01B995EC02B
S11310D020910001822F90E00197992324F0215060
S11310E02093000103C084E1809312018DE080937A
S11310F01C0158C0199905C0199BFECF8BE0809341
S11311001C01189B04C01A9B02C01B993FC020916C
S11311100001822F90E00197992324F0215020931D
S1131120000103C084E1809312018DE080931C01CF
S113113039C0189905C0189BFECF8CE080931C0120
S1131140199B04C01A9B02C01B9920C02091000166
S1131150822F90E00197992324F0215020930001DD
S113116003C084E1809312018DE080931C011AC0B6
S11311701C996CC08EE080931C016FC0189912C03A
S1131180189BFECF81E080931C0113C080911C0149
S113119090E0FC013197EE30F10508F066C0EB54A5
S11311A0FF4F36C5809100012AD90CD980E182B95C
S11311B008958091000123D905D981E082B9089569
S11311C0809100011CD9FED888E082B908958091ED
S11311D0000115D9F7D882E082B908958091000101
S11311E00ED9F0D881E082B908958091000107D921
S11311F0E9D882E082B908958091000100D9E2D84B
S113120088E082B9089580910001F9D8DBD882E0A2
S113121082B9089580910001F2D8D4D881E082B9CE
S1131220089580910001EBD8CDD888E082B9089563
S113123080910001E4D8C6D881E082B908958091F4
S11312400001DDD8BFD882E082B908958091000101
S1131250D6D8B8D881E082B9089580910001CFD85A
S1131260B1D812B888E0809312010895209120012A
S1131270822F90E08031910508F04CC0FC01ED53C1
S1131280FF4FC6C480911201883009F04CC01899F0
S11312904AC0189BFECF81E08093200146C082E0C3
S11312A08093200145C083E08093200144C084E002
S11312B08093200143C085E08093200142C086E0F2
S11312C08093200141C087E08093200140C088E0E2
S11312D0809320013FC089E0809320013EC08AE0D2
S11312E0809320013DC08BE0809320013CC08CE0C2
S11312F0809320013BC08DE0809320013AC08EE0B2
S11313008093200139C08FE08093200138C010926F
S1131310200109C0822F90E080319105A8F5FC01DD
S1131320ED52FF4F75C412B8089588E082B908954C
S113133084E082B9089582E082B9089581E082B997
S1131340089582E082B9089581E082B9089584E025
S113135082B9089588E082B9089582E082B9089537
S113136081E082B9089582E082B9089581E082B96A
S1131370089584E082B9089588E082B9089581E0EF
S113138082B989E08093120108958091210190E04F
S11313908131910508F0E9C1FC01ED51FF4F38C4DA
S11313A080911201893009F07DC212B81B9905C0E1
S11313B01B9BFECF81E080932101199B04C01A9BE3
S11313C002C01899D2C120910001822F90E00197A8
S11313D0992324F021502093000103C084E18093D9
S11313E0120180E180932101CCC11A9905C01A9B96
S11313F0FECF82E080932101199B04C0189B02C098
S11314001B99B3C120910001822F90E00197992389
S113141024F021502093000103C084E18093120141
S113142080E180932101ADC1199905C0199BFECFBC
S113143083E080932101189B04C01A9B02C01B996E
S113144094C120910001822F90E00197992324F008
S113145021502093000103C084E18093120180E1B4
S1131460809321018EC1189905C0189BFECF84E09A
S113147080932101199B04C01A9B02C01B9975C15A
S113148020910001822F90E00197992324F02150AC
S11314902093000103C084E18093120180E18093D2
S11314A021016FC1199905C0199BFECF85E0809376
S11314B02101189B04C01A9B02C01B9956C120919C
S11314C00001822F90E00197992324F0215020936A
S11314D0000103C084E18093120180E18093210123
S11314E050C1189905C0189BFECF86E08093210156
S11314F0199B04C01A9B02C01B9937C1209100019B
S1131500822F90E00197992324F021502093000129
S113151003C084E18093120180E18093210131C1F1
S11315201A9905C01A9BFECF87E080932101199B6D
S113153004C0189B02C01B9918C120910001822F7E
S113154090E00197992324F021502093000103C0D7
S113155084E18093120180E18093210112C11B99DF
S113156005C01B9BFECF88E080932101199B04C01A
S11315701A9B02C01899F9C020910001822F90E0B3
S11315800197992324F021502093000103C084E1A2
S11315908093120180E180932101F3C0199905C061
S11315A0199BFECF89E080932101189B04C01A9BEC
S11315B002C01B99DAC020910001822F90E00197AC
S11315C0992324F021502093000103C084E18093E7
S11315D0120180E180932101D4C0189905C0189BA1
S11315E0FECF8AE080932101199B04C01A9B02C09C
S11315F01B99BBC020910001822F90E00197992391
S113160024F021502093000103C084E1809312014F
S113161080E180932101B5C0199905C0199BFECFC3
S11316208BE080932101189B04C01A9B02C01B9974
S11316309CC020910001822F90E00197992324F00F
S113164021502093000103C084E18093120180E1C2
S11316508093210196C0189905C0189BFECF8CE099
S113166080932101199B04C01A9B02C01B997DC061
S113167020910001822F90E00197992324F02150BA
S11316802093000103C084E18093120180E18093E0
S1131690210177C01A9905C01A9BFECF8DE0809373
S11316A02101199B04C0189B02C01B995EC02091A4
S11316B00001822F90E00197992324F02150209378
S11316C0000103C084E18093120180E18093210131
S11316D058C01B9905C01B9BFECF8EE0809321014F
S11316E0199B04C01A9B02C018993FC020910001A5
S11316F0822F90E00197992324F021502093000138
S113170003C084E18093120180E18093210139C0F8
S1131710189905C0189BFECF8FE080932101199B77
S113172004C01A9B02C01B9920C020910001822F83
S113173090E00197992324F021502093000103C0E5
S113174084E18093120180E1809321011AC01C99E5
S11317509FC081E180932101A4C01B9912C01B9BEF
S1131760FECF81E08093210115C08091210190E09A
S1131770FC013197E131F10508F094C0EC50FF4FC2
S113178047C2809100010E94FF010E94E20180E1B2
S113179082B90895809100010E94FF010E94E20134
S11317A088E082B90895809100010E94FF010E949F
S11317B0E20184E082B90895809100010E94FF0152
S11317C00E94E20182E082B90895809100010E94A2
S11317D0FF010E94E20181E082B908958091000135
S11317E00E94FF010E94E20182E082B90895809183
S11317F000010E94FF010E94E20181E082B9089584
S1131800809100010E94FF010E94E20184E082B9FC
S11318100895809100010E94FF010E94E20188E086
S113182082B90895809100010E94FF010E94E201A3
S113183082E082B90895809100010E94FF010E9414
S1131840E20181E082B90895809100010E94FF01C4
S11318500E94E20182E082B90895809100010E9411
S1131860FF010E94E20181E082B9089580910001A4
S11318700E94FF010E94E20184E082B908958091F0
S113188000010E94FF010E94E20188E082B90895EC
S1131890809100010E94FF010E94E20181E082B96F
S11318A0089512B80895CF92DF92EF92FF928FEFCE
S11318B081B912B814B885B98AB91BB887B918B8F0
S11318C08091120181119DC10E94450180911201F4
S11318D0811126C00F2EF4EFCF2EDD24D394E12CFA
S11318E0F12CF02DC0920101D0920201E09203018B
S11318F0F0920401C0921301D0921401E0921501F8
S1131900F09216010E9482010E942902809117011F
S11319108823E1F31092170180911201882311F3B7
S113192080911201813029F50F2EF8ECCF2ED12CA5
S1131930E12CF12CF02DC0920101D0920201E09231
S11319400301F0920401C0921301D0921401E092B9
S11319501501F09216010E9482010E947902809181
S113196017018823E1F3109217018091120181304D
S113197011F380911201823031F50F2EF4EFCF2E46
S1131980DD24D394E12CF12CF02DC0920101D092EE
S11319900201E0920301F0920401C0921301D0927B
S11319A01401E0921501F09216010E9482010E9436
S11319B05803809117018823E1F310921701809155
S11319C01201823011F380911201833029F50F2E18
S11319D0F8ECCF2ED12CE12CF12CF02DC09201018A
S11319E0D0920201E0920301F0920401C09213012B
S11319F0D0921401E0921501F09216010E94820126
S1131A000E94AC03809117018823E1F3109217011F
S1131A1080911201833011F380911201843031F5E9
S1131A200F2EF8EECF2EF3E0DF2EE12CF12CF02D6B
S1131A30C0920101D0920201E0920301F0920401EC
S1131A40C0921301D0921401E0921501F092160194
S1131A500E9482010E94C204809117018823E1F34D
S1131A601092170180911201843011F380911201B8
S1131A70853029F50F2EF8ECCF2ED12CE12CF12C4A
S1131A80F02DC0920101D0920201E0920301F09284
S1131A900401C0921301D0921401E0921501F09256
S1131AA016010E9482010E94270580911701882354
S1131AB0E1F31092170180911201853011F38091A6
S1131AC01201863029F50F2EF4EFCF2EDD24D394A6
S1131AD0E12CF12CF02DC0920101D0920201E09290
S1131AE00301F0920401C0921301D0921401E09218
S1131AF01501F09216010E9482013BD980911701D1
S1131B008823E1F31092170180911201863019F3B2
S1131B1080911201873021F50F2EF8ECCF2ED12CB5
S1131B20E12CF12CF02DC0920101D0920201E0923F
S1131B300301F0920401C0921301D0921401E092C7
S1131B401501F09216010E9482018DD9809117012E
S1131B508823E1F31092170180911201873019F361
S1131B6080911201883029F50F2EF4EFCF2EDD2459
S1131B70D394E12CF12CF02DC0920101D0920201FA
S1131B80E0920301F0920401C0921301D092140177
S1131B90E0921501F09216010E94820167DB8091A8
S1131BA017018823E1F31092170180911201883004
S1131BB019F380911201893021F50F2EF8ECCF2E04
S1131BC0D12CE12CF12CF02DC0920101D092020114
S1131BD0E0920301F0920401C0921301D092140127
S1131BE0E0921501F09216010E948201CEDB8091F1
S1131BF017018823E1F310921701809112018930B3
S1131C0019F380E090E0FF90EF90DF90CF9008957B
S1131C10EE0FFF1F0590F491E02D0994F894FFCF87
S1131C20090100000068656C6C6F20776F726C644A
S1051C300000AE
S9030000FC
