:100000006BC0000086C0000084C0000082C00000F9
:1000100080C000007EC000007CC000007AC00000EC
:1000200078C0000076C0000074C0000072C00000FC
:1000300070C0000093C000006CC000006AC00000E7
:1000400068C0000066C0000064C0000062C000001C
:1000500060C000005EC000005CC000005AC000002C
:1000600058C0000056C0000054C0000052C000003C
:1000700050C000004EC000004CC000004AC000004C
:1000800048C0000046C0000044C00000C801D801BC
:10009000DC01E001E401E801EC01FC01FE010102E8
:1000A000040207020A020D021B022C023D024E024C
:1000B0005F027002810298029B029E02A102A402CA
:1000C000A7029502AA02BA02CD02D302D902DF0228
:1000D000E502EB02F102F70211241FBECFEFD0E4DC
:1000E000DEBFCDBF11E0A0E0B1E0E2ECF7E000E060
:1000F0000BBF02C007900D92A430B107D9F721E0E1
:10010000A4E0B1E001C01D92A131B207E1F778D2BD
:1001100056C376CF8BE0809381008DE790E090937B
:1001200089008093880082E080936F0010928500A0
:10013000109284008091000190910101A091020130
:10014000B09103018093050190930601A0930701EC
:10015000B09308018FB780688FBF08951F920F92E8
:100160000FB60F9211248F939F93AF93BF938091FB
:10017000050190910601A0910701B0910801019736
:10018000A109B1098093050190930601A09307018D
:10019000B0930801892B8A2B8B2B99F481E08093F3
:1001A00009018091000190910101A0910201B0919B
:1001B00003018093050190930601A0930701B0937A
:1001C0000801BF91AF919F918F910F900FBE0F903B
:1001D0001F90189580910E018230C9F028F4882371
:1001E00041F0813081F020C08330A9F08430B9F033
:1001F0001BC080910401811126C01C9924C081E09C
:1002000080930E0122C082E080930E0121C083E022
:1002100080930E0120C084E080930E011FC01092D5
:100220000E0181E08093040180910E01823081F003
:1002300028F4882341F0813041F00895833059F04B
:10024000843071F40BC012B8089581E082B908952A
:1002500082E082B9089584E082B9089588E082B985
:100260000895809110018230A9F128F4882359F073
:100270008130F9F05FC0843009F44EC0E0F1853080
:1002800009F450C057C080910401813009F075C055
:10029000189905C0189BFECF81E080931001199B2F
:1002A00004C01A9B02C01B9945C085E080931001D1
:1002B00051C0199905C0199BFECF82E080931001AF
:1002C000189B04C01A9B02C01B9934C085E0809320
:1002D000100140C01A9905C01A9BFECF83E080939D
:1002E0001001199B04C0189B02C01B9923C085E014
:1002F000809310012FC01B9905C01B9BFECF84E08B
:1003000080931001199B04C01A9B02C0189912C057
:1003100085E0809310011EC01C9928C086E0809360
:10032000100127C0189916C0189BFECF81E080935A
:10033000100113C0809110018330A9F028F481309E
:1003400061F0823069F00895853021F078F08630D0
:1003500081F0089580E182B9089581E082B908951D
:1003600082E082B9089584E082B9089588E082B974
:10037000089512B882E080930401089580910D01E0
:1003800090E08730910570F5FC01EA5BFF4F11C2E8
:1003900080910401823081F5189903C081E0809337
:1003A0000D01189B1FC010920D011899FCCF24C09D
:1003B00082E080930D0125C083E080930D0124C06D
:1003C00084E080930D0123C085E080930D0122C05D
:1003D00086E080930D0121C083E080930401109298
:1003E0000D010AC080910D0190E087309105B8F4AD
:1003F000FC01E35BFF4FDDC112B8089581E082B9D3
:10040000089584E082B9089588E082B9089581E072
:1004100082B9089582E082B9089581E082B9089591
:1004200080910A0190E08730910508F070C0FC01CE
:10043000EC5AFF4FBEC1189905C0189BFECF81E052
:1004400080930A01199B04C01A9B02C01B9962C0C9
:1004500087E080930A0169C01A9905C01A9BFECFF4
:1004600082E080930A01199B04C0189B02C01B996B
:1004700051C085E080930A0167C01B9905C01B9B92
:10048000FECF83E080930A01199B04C01A9B02C02F
:10049000189940C087E080930A0147C0189905C0A9
:1004A000189BFECF84E080930A01199B04C01A9B1D
:1004B00002C01B992FC087E080930A0136C01999AA
:1004C00005C0199BFECF85E080930A01189B04C0EC
:1004D0001A9B02C01B991EC087E080930A0125C0A9
:1004E000189905C0189BFECF86E080930A01199BDE
:1004F00004C01A9B02C01B990DC087E080930A01BB
:1005000014C01C9924C088E080930A0123C0109273
:100510000A01089580910A0190E0FC013197E830CA
:10052000F105E0F4E55AFF4F44C180E182B9089536
:1005300081E082B9089584E082B9089588E082B9A3
:10054000089581E082B9089582E082B9089581E03A
:1005500082B9089512B884E08093040108958091CF
:100560000B0190E08930910508F047C0FC01ED597E
:10057000FF4F1FC180910401843009F040C082B94F
:10058000189908C0189BFECF81E080930B0182E090
:1005900082B9089510920B01089582E080930B01B7
:1005A00084E082B9089583E080930B0181E082B9F1
:1005B000089584E080930B0188E082B9089585E076
:1005C00080930B0182E082B9089586E080930B014D
:1005D00084E082B9089587E080930B0181E082B9BD
:1005E000089588E080930B0182E082B9089589E044
:1005F00080930B0188E082B9089510920B01089551
:10060000CF92DF92EF92FF92CF938FEF81B912B822
:1006100014B885B9809104018111C3C00F2EFCEB81
:10062000CF2EF2E0DF2EE12CF12CF02DC092000154
:10063000D0920101E0920201F0920301C092050103
:10064000D0920601E0920701F092080163DDC2DD5D
:10065000809109018823E1F310920901809104013E
:10066000882321F3813019F50F2EF8ECCF2ED12CF1
:10067000E12CF12CF02DC0920001D0920101E0920A
:100680000201F0920301C0920501D0920601E092AE
:100690000701F09208013EDDE4DD80910901882325
:1006A000E1F31092090180910401813021F38091DE
:1006B0000401823021F50F2EF8EECF2EF3E0DF2E6D
:1006C000E12CF12CF02DC0920001D0920101E092BA
:1006D0000201F0920301C0920501D0920601E0925E
:1006E0000701F092080116DD49DE80910901882397
:1006F000E1F31092090180910401823021F380918D
:100700000401833021F50F2EF0E9CF2EDD24D394A0
:10071000E12CF12CF02DC0920001D0920101E09269
:100720000201F0920301C0920501D0920601E0920D
:100730000701F0920801EEDC73DE80910901882345
:10074000E1F31092090180910401833021F380913B
:100750000401843031F5C8E00F2EF8EECF2EF3E01F
:10076000DF2EE12CF12CF02DC2B9C0920001D09205
:100770000101E0920201F0920301C0920501D092C2
:100780000601E0920701F0920801C4DCE8DE8091E6
:1007900009018823E1F3109209018091040184305A
:1007A00019F380E090E0CF91FF90EF90DF90CF9031
:1007B0000895EE0FFF1F0590F491E02D0994F89431
:0207C000FFCF69
:0407C2000100000032
:00000001FF
